{
  "contractName": "DatabaseSkills",
  "abi": [
    {
      "inputs": [
        {
          "internalType": "address",
          "name": "_owner",
          "type": "address"
        }
      ],
      "payable": false,
      "stateMutability": "nonpayable",
      "type": "constructor"
    },
    {
      "anonymous": false,
      "inputs": [
        {
          "indexed": false,
          "internalType": "bytes32",
          "name": "newSkill",
          "type": "bytes32"
        }
      ],
      "name": "SkillAdded",
      "type": "event"
    },
    {
      "constant": false,
      "inputs": [
        {
          "internalType": "address",
          "name": "_to",
          "type": "address"
        }
      ],
      "name": "changeOwner",
      "outputs": [],
      "payable": false,
      "stateMutability": "nonpayable",
      "type": "function"
    },
    {
      "constant": true,
      "inputs": [
        {
          "internalType": "uint256",
          "name": "",
          "type": "uint256"
        }
      ],
      "name": "keys",
      "outputs": [
        {
          "internalType": "bytes32",
          "name": "",
          "type": "bytes32"
        }
      ],
      "payable": false,
      "stateMutability": "view",
      "type": "function"
    },
    {
      "constant": true,
      "inputs": [],
      "name": "owner",
      "outputs": [
        {
          "internalType": "address",
          "name": "",
          "type": "address"
        }
      ],
      "payable": false,
      "stateMutability": "view",
      "type": "function"
    },
    {
      "constant": true,
      "inputs": [
        {
          "internalType": "bytes32",
          "name": "_skill",
          "type": "bytes32"
        }
      ],
      "name": "checkSkillExistence",
      "outputs": [
        {
          "internalType": "bool",
          "name": "",
          "type": "bool"
        }
      ],
      "payable": false,
      "stateMutability": "view",
      "type": "function"
    },
    {
      "constant": false,
      "inputs": [
        {
          "internalType": "bytes32",
          "name": "_newSkill",
          "type": "bytes32"
        }
      ],
      "name": "addSkill",
      "outputs": [],
      "payable": false,
      "stateMutability": "nonpayable",
      "type": "function"
    },
    {
      "constant": true,
      "inputs": [],
      "name": "getSkillsNumber",
      "outputs": [
        {
          "internalType": "uint256",
          "name": "",
          "type": "uint256"
        }
      ],
      "payable": false,
      "stateMutability": "view",
      "type": "function"
    }
  ],
  "bytecode": "0x608060405234801561001057600080fd5b506040516104a23803806104a28339818101604052602081101561003357600080fd5b505160008054600160a060020a03909216600160a060020a031990921691909117905561043d806100656000396000f3fe608060405234801561001057600080fd5b506004361061007e577c010000000000000000000000000000000000000000000000000000000060003504630cb6aaf18114610083578063741332e1146100b25780638da5cb5b146100e357806394d2bdfe14610114578063a6f9dae114610133578063dcf59f9314610166575b600080fd5b6100a06004803603602081101561009957600080fd5b503561016e565b60408051918252519081900360200190f35b6100cf600480360360208110156100c857600080fd5b503561018c565b604080519115158252519081900360200190f35b6100eb6101b0565b6040805173ffffffffffffffffffffffffffffffffffffffff9092168252519081900360200190f35b6101316004803603602081101561012a57600080fd5b50356101cc565b005b6101316004803603602081101561014957600080fd5b503573ffffffffffffffffffffffffffffffffffffffff16610340565b6100a0610402565b6002818154811061017b57fe5b600091825260209091200154905081565b6000818152600160205260408120546101a7575060006101ab565b5060015b919050565b60005473ffffffffffffffffffffffffffffffffffffffff1681565b60005473ffffffffffffffffffffffffffffffffffffffff16331461025257604080517f08c379a000000000000000000000000000000000000000000000000000000000815260206004820152600d60248201527f4e6f7420746865206f776e657200000000000000000000000000000000000000604482015290519081900360640190fd5b61025b8161018c565b156102c757604080517f08c379a000000000000000000000000000000000000000000000000000000000815260206004820152601360248201527f536b696c6c20616c726564792065786973747300000000000000000000000000604482015290519081900360640190fd5b6002805460018181019092557f405787fa12a823e0f2b7631cc41b3ba8828b3321ca811111fa75cd3aa3bb5ace0182905560008281526020918252604090819020839055805183815290517faa188befcea9a02d8dc91f778301ada798515c2a5e0913965d464b32ea0975ba929181900390910190a150565b60005473ffffffffffffffffffffffffffffffffffffffff1633146103c657604080517f08c379a000000000000000000000000000000000000000000000000000000000815260206004820152600d60248201527f4e6f7420746865206f776e657200000000000000000000000000000000000000604482015290519081900360640190fd5b6000805473ffffffffffffffffffffffffffffffffffffffff191673ffffffffffffffffffffffffffffffffffffffff92909216919091179055565b6002549056fea265627a7a72315820949b53280769002981731777817ac1a2e21aa4a4ee5076594dbaceb9c5fd6dea64736f6c634300050d0032",
  "source": "pragma solidity >=0.4.21 <0.6.0;\n\n\nimport {Ownable} from \"./Interfaces.sol\";\n\n/// @author Samuel Fabrizi\n/// @title DatabaseSkills\n/// @notice This contract stores the possibile skills available in the instance of a Rating System\ncontract DatabaseSkills is Ownable {\n\n    mapping(bytes32=>bytes32)   private availableSkills;        // map that contains pairs of the form (Key, Key) where Kwy is the unique identifier of a skill\n    bytes32[]                   public keys;                    // array used to implement mapping iterator pattern (future work)\n    \n    event SkillAdded(bytes32 newSkill);                         // Notify correct addition of new skill\n\n    constructor(address _owner) Ownable(_owner) public {}\n\n    /// @notice checks if the input skill is alredy stored in this contract\n    /// @param _skill The sought skill\n    function checkSkillExistence(bytes32 _skill) public view returns (bool) {\n        if (availableSkills[_skill] == 0)\n            return false;\n        else\n            return true;\n    }\n    \n    /// @notice Add a new Skill to the database, only if the caller is the owner of this contract (avoid spam) and the skill isn't already stored \n    /// @param _newSkill The skill to add\n    function addSkill(bytes32 _newSkill) external isOwner {\n        require(checkSkillExistence(_newSkill) == false, \"Skill alredy exists\");\n        keys.push(_newSkill);\n        availableSkills[_newSkill] = _newSkill;\n        emit SkillAdded(_newSkill);\n    }\n\n\n    /// @notice Returns the number of available skills\n    function getSkillsNumber() external view returns(uint){\n        return keys.length;\n    }\n\n\n    \n}",
  "sourcePath": "/Users/fram3/code/nitrotest/Decentralized-Rating-Platform/contracts/DatabaseSkills.sol",
  "compiler": {
    "name": "solc",
    "version": "0.5.13+commit.5b0b510c.Emscripten.clang"
  },
  "schemaVersion": "3.4.16",
  "updatedAt": "2024-01-29T22:24:44.048Z",
  "networkType": "ethereum",
  "devdoc": {
    "author": "Samuel Fabrizi",
    "methods": {
      "addSkill(bytes32)": {
        "params": {
          "_newSkill": "The skill to add"
        }
      },
      "changeOwner(address)": {
        "params": {
          "_to": "The new owner of this contract "
        }
      },
      "checkSkillExistence(bytes32)": {
        "params": {
          "_skill": "The sought skill"
        }
      }
    },
    "title": "DatabaseSkills"
  },
  "userdoc": {
    "methods": {
      "addSkill(bytes32)": {
        "notice": "Add a new Skill to the database, only if the caller is the owner of this contract (avoid spam) and the skill isn't already stored "
      },
      "changeOwner(address)": {
        "notice": "This function provides the possibility to change the owner"
      },
      "checkSkillExistence(bytes32)": {
        "notice": "checks if the input skill is alredy stored in this contract"
      },
      "getSkillsNumber()": {
        "notice": "Returns the number of available skills"
      }
    },
    "notice": "This contract stores the possibile skills available in the instance of a Rating System"
  }
}