{
  "contractName": "ERC20",
  "abi": [
    {
      "inputs": [
        {
          "internalType": "string",
          "name": "_name",
          "type": "string"
        },
        {
          "internalType": "string",
          "name": "_symbol",
          "type": "string"
        },
        {
          "internalType": "uint256",
          "name": "_initialSupply",
          "type": "uint256"
        }
      ],
      "payable": false,
      "stateMutability": "nonpayable",
      "type": "constructor"
    },
    {
      "anonymous": false,
      "inputs": [
        {
          "indexed": true,
          "internalType": "address",
          "name": "_owner",
          "type": "address"
        },
        {
          "indexed": true,
          "internalType": "address",
          "name": "_spender",
          "type": "address"
        },
        {
          "indexed": false,
          "internalType": "uint256",
          "name": "_value",
          "type": "uint256"
        }
      ],
      "name": "Approval",
      "type": "event"
    },
    {
      "anonymous": false,
      "inputs": [
        {
          "indexed": true,
          "internalType": "address",
          "name": "_from",
          "type": "address"
        },
        {
          "indexed": true,
          "internalType": "address",
          "name": "_to",
          "type": "address"
        },
        {
          "indexed": false,
          "internalType": "uint256",
          "name": "_value",
          "type": "uint256"
        }
      ],
      "name": "Transfer",
      "type": "event"
    },
    {
      "constant": true,
      "inputs": [
        {
          "internalType": "address",
          "name": "",
          "type": "address"
        },
        {
          "internalType": "address",
          "name": "",
          "type": "address"
        }
      ],
      "name": "_allowance",
      "outputs": [
        {
          "internalType": "uint256",
          "name": "",
          "type": "uint256"
        }
      ],
      "payable": false,
      "stateMutability": "view",
      "type": "function"
    },
    {
      "constant": true,
      "inputs": [
        {
          "internalType": "address",
          "name": "",
          "type": "address"
        }
      ],
      "name": "_balances",
      "outputs": [
        {
          "internalType": "uint256",
          "name": "",
          "type": "uint256"
        }
      ],
      "payable": false,
      "stateMutability": "view",
      "type": "function"
    },
    {
      "constant": true,
      "inputs": [],
      "name": "_totalSupply",
      "outputs": [
        {
          "internalType": "uint256",
          "name": "",
          "type": "uint256"
        }
      ],
      "payable": false,
      "stateMutability": "view",
      "type": "function"
    },
    {
      "constant": true,
      "inputs": [],
      "name": "name",
      "outputs": [
        {
          "internalType": "string",
          "name": "",
          "type": "string"
        }
      ],
      "payable": false,
      "stateMutability": "view",
      "type": "function"
    },
    {
      "constant": true,
      "inputs": [],
      "name": "symbol",
      "outputs": [
        {
          "internalType": "string",
          "name": "",
          "type": "string"
        }
      ],
      "payable": false,
      "stateMutability": "view",
      "type": "function"
    },
    {
      "constant": true,
      "inputs": [],
      "name": "totalSupply",
      "outputs": [
        {
          "internalType": "uint256",
          "name": "",
          "type": "uint256"
        }
      ],
      "payable": false,
      "stateMutability": "view",
      "type": "function"
    },
    {
      "constant": true,
      "inputs": [
        {
          "internalType": "address",
          "name": "account",
          "type": "address"
        }
      ],
      "name": "balanceOf",
      "outputs": [
        {
          "internalType": "uint256",
          "name": "",
          "type": "uint256"
        }
      ],
      "payable": false,
      "stateMutability": "view",
      "type": "function"
    },
    {
      "constant": true,
      "inputs": [
        {
          "internalType": "address",
          "name": "owner",
          "type": "address"
        },
        {
          "internalType": "address",
          "name": "spender",
          "type": "address"
        }
      ],
      "name": "allowance",
      "outputs": [
        {
          "internalType": "uint256",
          "name": "",
          "type": "uint256"
        }
      ],
      "payable": false,
      "stateMutability": "view",
      "type": "function"
    },
    {
      "constant": false,
      "inputs": [
        {
          "internalType": "address",
          "name": "_to",
          "type": "address"
        },
        {
          "internalType": "uint256",
          "name": "_value",
          "type": "uint256"
        }
      ],
      "name": "transfer",
      "outputs": [
        {
          "internalType": "bool",
          "name": "",
          "type": "bool"
        }
      ],
      "payable": false,
      "stateMutability": "nonpayable",
      "type": "function"
    },
    {
      "constant": false,
      "inputs": [
        {
          "internalType": "address",
          "name": "_spender",
          "type": "address"
        },
        {
          "internalType": "uint256",
          "name": "_value",
          "type": "uint256"
        }
      ],
      "name": "approve",
      "outputs": [
        {
          "internalType": "bool",
          "name": "",
          "type": "bool"
        }
      ],
      "payable": false,
      "stateMutability": "nonpayable",
      "type": "function"
    },
    {
      "constant": false,
      "inputs": [
        {
          "internalType": "address",
          "name": "_from",
          "type": "address"
        },
        {
          "internalType": "address",
          "name": "_to",
          "type": "address"
        },
        {
          "internalType": "uint256",
          "name": "_value",
          "type": "uint256"
        }
      ],
      "name": "transferFrom",
      "outputs": [
        {
          "internalType": "bool",
          "name": "",
          "type": "bool"
        }
      ],
      "payable": false,
      "stateMutability": "nonpayable",
      "type": "function"
    }
  ],
  "bytecode": "0x608060405234801561001057600080fd5b50604051610adf380380610adf8339818101604052606081101561003357600080fd5b810190808051604051939291908464010000000082111561005357600080fd5b90830190602082018581111561006857600080fd5b825164010000000081118282018810171561008257600080fd5b82525081516020918201929091019080838360005b838110156100af578181015183820152602001610097565b50505050905090810190601f1680156100dc5780820380516001836020036101000a031916815260200191505b50604052602001805160405193929190846401000000008211156100ff57600080fd5b90830190602082018581111561011457600080fd5b825164010000000081118282018810171561012e57600080fd5b82525081516020918201929091019080838360005b8381101561015b578181015183820152602001610143565b50505050905090810190601f1680156101885780820380516001836020036101000a031916815260200191505b5060405260209081015185519093506101a792506000918601906101d9565b5081516101bb9060019060208501906101d9565b50336000908152600360205260409020819055600255506102749050565b828054600181600116156101000203166002900490600052602060002090601f016020900481019282601f1061021a57805160ff1916838001178555610247565b82800160010185558215610247579182015b8281111561024757825182559160200191906001019061022c565b50610253929150610257565b5090565b61027191905b80821115610253576000815560010161025d565b90565b61085c806102836000396000f3fe608060405234801561001057600080fd5b50600436106100c6576000357c0100000000000000000000000000000000000000000000000000000000900480636ebcf6071161008e5780636ebcf607146101e057806370a082311461020657806395d89b411461022c578063a9059cbb14610234578063dd336c1214610260578063dd62ed3e1461028e576100c6565b806306fdde03146100cb578063095ea7b31461014857806318160ddd1461018857806323b872dd146101a25780633eaaf86b146101d8575b600080fd5b6100d36102bc565b6040805160208082528351818301528351919283929083019185019080838360005b8381101561010d5781810151838201526020016100f5565b50505050905090810190601f16801561013a5780820380516001836020036101000a031916815260200191505b509250505060405180910390f35b6101746004803603604081101561015e57600080fd5b50600160a060020a03813516906020013561034a565b604080519115158252519081900360200190f35b6101906103b0565b60408051918252519081900360200190f35b610174600480360360608110156101b857600080fd5b50600160a060020a038135811691602081013590911690604001356103b6565b610190610518565b610190600480360360208110156101f657600080fd5b5035600160a060020a031661051e565b6101906004803603602081101561021c57600080fd5b5035600160a060020a0316610530565b6100d361054b565b6101746004803603604081101561024a57600080fd5b50600160a060020a0381351690602001356105a5565b6101906004803603604081101561027657600080fd5b50600160a060020a0381358116916020013516610671565b610190600480360360408110156102a457600080fd5b50600160a060020a038135811691602001351661068e565b6000805460408051602060026001851615610100026000190190941693909304601f810184900484028201840190925281815292918301828280156103425780601f1061031757610100808354040283529160200191610342565b820191906000526020600020905b81548152906001019060200180831161032557829003601f168201915b505050505081565b336000818152600460209081526040808320600160a060020a038716808552908352818420869055815186815291519394909390927f8c5be1e5ebec7d5bd14f71427d1e84f3dd0314c0f7b2291e5b200ac8c7c3b925928290030190a350600192915050565b60025490565b600160a060020a0383166000908152600360205260408120548211156103db57600080fd5b600160a060020a038416600090815260046020908152604080832033845290915290205482111561040b57600080fd5b600160a060020a038416600090815260036020526040902054610434908363ffffffff6106b916565b600160a060020a038086166000908152600360205260408082209390935590851681522054610469908363ffffffff61070216565b600160a060020a0380851660009081526003602090815260408083209490945591871681526004825282812033825290915220546104ad908363ffffffff6106b916565b600160a060020a03808616600081815260046020908152604080832033845282529182902094909455805186815290519287169391927fddf252ad1be2c89b69c2b068fc378daa952ba7f163c4a11628f55a4df523b3ef929181900390910190a35060019392505050565b60025481565b60036020526000908152604090205481565b600160a060020a031660009081526003602052604090205490565b60018054604080516020600284861615610100026000190190941693909304601f810184900484028201840190925281815292918301828280156103425780601f1061031757610100808354040283529160200191610342565b336000908152600360205260408120548211156105c157600080fd5b336000908152600360205260409020546105e1908363ffffffff6106b916565b3360009081526003602052604080822092909255600160a060020a03851681522054610613908363ffffffff61070216565b600160a060020a0384166000818152600360209081526040918290209390935580518581529051919233927fddf252ad1be2c89b69c2b068fc378daa952ba7f163c4a11628f55a4df523b3ef9281900390910190a350600192915050565b600460209081526000928352604080842090915290825290205481565b600160a060020a03918216600090815260046020908152604080832093909416825291909152205490565b60006106fb83836040518060400160405280601e81526020017f536166654d6174683a207375627472616374696f6e206f766572666c6f770000815250610776565b9392505050565b6000828201838110156106fb57604080517f08c379a000000000000000000000000000000000000000000000000000000000815260206004820152601b60248201527f536166654d6174683a206164646974696f6e206f766572666c6f770000000000604482015290519081900360640190fd5b6000818484111561081f576040517f08c379a00000000000000000000000000000000000000000000000000000000081526004018080602001828103825283818151815260200191508051906020019080838360005b838110156107e45781810151838201526020016107cc565b50505050905090810190601f1680156108115780820380516001836020036101000a031916815260200191505b509250505060405180910390fd5b50505090039056fea265627a7a72315820c3088b06ea1a9ff2a90a6879aa4bcb1dec4f4b32949b488f2d051de16f38865264736f6c634300050d0032",
  "source": "pragma solidity ^0.5.0;\n\nimport \"./IERC20.sol\";\nimport \"@openzeppelin/contracts/math/SafeMath.sol\";\n\n/// @author Samuel Fabrizi\n/// @title ERC20\n/// @notice This contract represents an ERC20 token  \ncontract ERC20 is IERC20 {\n    using SafeMath for uint256;\n\n\tstring                                          public name;                    // token name\n    string                                          public symbol;                  // symbol of token\n    uint256                                         public _totalSupply;            // total supply\n    mapping(address => uint256)                     public _balances;               // map of balances\n    mapping(address => mapping(address => uint256)) public _allowance;              // map of allowance \n    \n\n    \n    constructor (string memory _name, string memory _symbol, uint256 _initialSupply) public {\n        name = _name;\n        symbol = _symbol;\n        _balances[msg.sender] = _initialSupply;\n        _totalSupply = _initialSupply;\n    }\n\n    \n    function totalSupply() external view returns (uint256){\n        \n        return _totalSupply;\n    }\n\n    \n    function balanceOf(address account) external view returns (uint256){\n\n        return _balances[account];\n    }\n\n\n    function allowance(address owner, address spender) external view returns (uint256){\n\n        return _allowance[owner][spender];\n    }\n\n\n    function transfer(address _to, uint256 _value) public returns (bool) {\n        require(_balances[msg.sender] >= _value);\n        \n        _balances[msg.sender] = _balances[msg.sender].sub(_value);\n        _balances[_to] = _balances[_to].add(_value);\n        \n        emit Transfer(msg.sender, _to, _value);\n        \n        return true;\n    }\n    \n\n    function approve(address _spender, uint256 _value) public returns (bool){\n        _allowance[msg.sender][_spender] = _value;\n        \n        emit Approval(msg.sender, _spender, _value);\n        \n        return true;\n    }\n    \n\n    function transferFrom(address _from, address _to, uint256 _value) public returns (bool){\n        require(_balances[_from] >= _value);\n        require(_allowance[_from][msg.sender] >= _value);\n        \n        _balances[_from] = _balances[_from].sub(_value);\n        _balances[_to] = _balances[_to].add(_value);\n        \n        _allowance[_from][msg.sender] = _allowance[_from][msg.sender].sub(_value);\n        \n        emit Transfer(_from, _to, _value);\n        \n        return true;\n    }\n\n\n}",
  "sourcePath": "/Users/fram3/code/nitrotest/Decentralized-Rating-Platform/contracts/Token/ERC20.sol",
  "compiler": {
    "name": "solc",
    "version": "0.5.13+commit.5b0b510c.Emscripten.clang"
  },
  "schemaVersion": "3.4.16",
  "updatedAt": "2024-01-29T18:52:32.508Z",
  "devdoc": {
    "author": "Samuel Fabrizi",
    "methods": {},
    "title": "ERC20"
  },
  "userdoc": {
    "methods": {},
    "notice": "This contract represents an ERC20 token  "
  }
}