{
  "contractName": "FunctionRegistry",
  "abi": [
    {
      "inputs": [
        {
          "internalType": "address",
          "name": "_owner",
          "type": "address"
        }
      ],
      "payable": false,
      "stateMutability": "nonpayable",
      "type": "constructor"
    },
    {
      "constant": false,
      "inputs": [
        {
          "internalType": "address",
          "name": "_to",
          "type": "address"
        }
      ],
      "name": "changeOwner",
      "outputs": [],
      "payable": false,
      "stateMutability": "nonpayable",
      "type": "function"
    },
    {
      "constant": true,
      "inputs": [],
      "name": "owner",
      "outputs": [
        {
          "internalType": "address",
          "name": "",
          "type": "address"
        }
      ],
      "payable": false,
      "stateMutability": "view",
      "type": "function"
    },
    {
      "constant": false,
      "inputs": [
        {
          "internalType": "contract RatingFunction",
          "name": "_function",
          "type": "address"
        },
        {
          "internalType": "bytes32",
          "name": "_name",
          "type": "bytes32"
        }
      ],
      "name": "pushFunction",
      "outputs": [],
      "payable": false,
      "stateMutability": "nonpayable",
      "type": "function"
    },
    {
      "constant": true,
      "inputs": [
        {
          "internalType": "uint256",
          "name": "_index",
          "type": "uint256"
        }
      ],
      "name": "getFunction",
      "outputs": [
        {
          "internalType": "contract RatingFunction",
          "name": "",
          "type": "address"
        }
      ],
      "payable": false,
      "stateMutability": "view",
      "type": "function"
    },
    {
      "constant": true,
      "inputs": [],
      "name": "getIds",
      "outputs": [
        {
          "internalType": "bytes32[]",
          "name": "",
          "type": "bytes32[]"
        }
      ],
      "payable": false,
      "stateMutability": "view",
      "type": "function"
    }
  ],
  "bytecode": "0x608060405234801561001057600080fd5b506040516104ab3803806104ab8339818101604052602081101561003357600080fd5b505160008054600160a060020a03909216600160a060020a0319909216919091179055610446806100656000396000f3fe608060405234801561001057600080fd5b5060043610610073577c010000000000000000000000000000000000000000000000000000000060003504630e097de781146100785780632b105663146100b157806340393cff146101095780638da5cb5b14610137578063a6f9dae11461013f575b600080fd5b6100956004803603602081101561008e57600080fd5b5035610165565b60408051600160a060020a039092168252519081900360200190f35b6100b96101ff565b60408051602080825283518183015283519192839290830191858101910280838360005b838110156100f55781810151838201526020016100dd565b505050509050019250505060405180910390f35b6101356004803603604081101561011f57600080fd5b50600160a060020a038135169060200135610257565b005b61009561035a565b6101356004803603602081101561015557600080fd5b5035600160a060020a0316610369565b600060015482106101d757604080517f08c379a000000000000000000000000000000000000000000000000000000000815260206004820152601660248201527f496e76616c69642046756e6374696f6e20696e64657800000000000000000000604482015290519081900360640190fd5b600182815481106101e457fe5b600091825260209091200154600160a060020a031692915050565b6060600280548060200260200160405190810160405280929190818152602001828054801561024d57602002820191906000526020600020905b815481526020019060010190808311610239575b5050505050905090565b600054600160a060020a031633146102d057604080517f08c379a000000000000000000000000000000000000000000000000000000000815260206004820152600d60248201527f4e6f7420746865206f776e657200000000000000000000000000000000000000604482015290519081900360640190fd5b6001805480820182557fb10e2d527612073b26eecdfd717e6a320cf44b4afac2b0732d9fcbe2b7fa0cf601805473ffffffffffffffffffffffffffffffffffffffff1916600160a060020a0394909416939093179092556002805492830181556000527f405787fa12a823e0f2b7631cc41b3ba8828b3321ca811111fa75cd3aa3bb5ace90910155565b600054600160a060020a031681565b600054600160a060020a031633146103e257604080517f08c379a000000000000000000000000000000000000000000000000000000000815260206004820152600d60248201527f4e6f7420746865206f776e657200000000000000000000000000000000000000604482015290519081900360640190fd5b6000805473ffffffffffffffffffffffffffffffffffffffff1916600160a060020a039290921691909117905556fea265627a7a72315820445b1db695f0e84bf87aab9c4cd19ce15de31311678d05b2feb35d9f2c59334464736f6c634300050d0032",
  "source": "pragma solidity >=0.4.21 <0.6.0;\n\n\nimport {Ownable} from \"./Interfaces.sol\";\nimport {RatingFunction, SimpleAvarageFunction} from \"./RatingFunction.sol\";\n\n/// @author Andrea Lisi\n/// @title FunctionRegistry\n/// @notice This contracts stores a list of RatingFunctions. An Item can pick from this registry the function it wants to use to compute its final score\ncontract FunctionRegistry is Ownable {\n\n    RatingFunction[] private registry;  // Se metto public questo mi evito la funzione getFunction\n    bytes32[] private ids;\n\n    constructor(address _owner) Ownable(_owner) public {}\n\n    /// @notice Add a new RatingFunction to the registry, only if the caller is the owner of this registry (avoid spam)\n    /// @param _function The Function to add\n    /// @param _name A name for the Function\n    function pushFunction(RatingFunction _function, bytes32 _name) external isOwner {\n\n        registry.push(_function);\n        ids.push(_name);\n    }\n\n    /// @notice Get the RatingFunction at a certain index\n    /// @param _index The index of the Function to retrieve\n    /// @return The RatingFunction address\n    function getFunction(uint _index) external view returns(RatingFunction) {\n\n        require(_index >= 0 && _index < registry.length, \"Invalid Function index\");\n\n        return registry[_index];\n    }\n\n    /// @notice Get the list of the names of the stored RatingFunctionFunctions\n    /// @return The list of RatingFunction\n    function getIds() external view returns(bytes32[] memory) {\n\n        return ids;\n    }\n}\n",
  "sourcePath": "/Users/fram3/code/nitrotest/Decentralized-Rating-Platform/contracts/FunctionRegistry.sol",
  "compiler": {
    "name": "solc",
    "version": "0.5.13+commit.5b0b510c.Emscripten.clang"
  },
  "schemaVersion": "3.4.16",
  "updatedAt": "2024-01-29T22:24:44.037Z",
  "networkType": "ethereum",
  "devdoc": {
    "author": "Andrea Lisi",
    "methods": {
      "changeOwner(address)": {
        "params": {
          "_to": "The new owner of this contract "
        }
      },
      "getFunction(uint256)": {
        "params": {
          "_index": "The index of the Function to retrieve"
        },
        "return": "The RatingFunction address"
      },
      "getIds()": {
        "return": "The list of RatingFunction"
      },
      "pushFunction(address,bytes32)": {
        "params": {
          "_function": "The Function to add",
          "_name": "A name for the Function"
        }
      }
    },
    "title": "FunctionRegistry"
  },
  "userdoc": {
    "methods": {
      "changeOwner(address)": {
        "notice": "This function provides the possibility to change the owner"
      },
      "getFunction(uint256)": {
        "notice": "Get the RatingFunction at a certain index"
      },
      "getIds()": {
        "notice": "Get the list of the names of the stored RatingFunctionFunctions"
      },
      "pushFunction(address,bytes32)": {
        "notice": "Add a new RatingFunction to the registry, only if the caller is the owner of this registry (avoid spam)"
      }
    },
    "notice": "This contracts stores a list of RatingFunctions. An Item can pick from this registry the function it wants to use to compute its final score"
  }
}