{
  "contractName": "Item",
  "abi": [
    {
      "inputs": [
        {
          "internalType": "bytes32",
          "name": "_name",
          "type": "bytes32"
        },
        {
          "internalType": "address",
          "name": "_owner",
          "type": "address"
        },
        {
          "internalType": "address",
          "name": "_rsf",
          "type": "address"
        },
        {
          "internalType": "bytes32",
          "name": "_skill",
          "type": "bytes32"
        },
        {
          "internalType": "string",
          "name": "_nameToken",
          "type": "string"
        },
        {
          "internalType": "string",
          "name": "_symbolToken",
          "type": "string"
        },
        {
          "internalType": "uint256",
          "name": "_tokenValue",
          "type": "uint256"
        }
      ],
      "payable": false,
      "stateMutability": "nonpayable",
      "type": "constructor"
    },
    {
      "anonymous": false,
      "inputs": [
        {
          "indexed": false,
          "internalType": "address",
          "name": "_to",
          "type": "address"
        }
      ],
      "name": "CommitmentRevoked",
      "type": "event"
    },
    {
      "anonymous": false,
      "inputs": [
        {
          "indexed": false,
          "internalType": "contract Item",
          "name": "_item",
          "type": "address"
        },
        {
          "indexed": false,
          "internalType": "uint8",
          "name": "_score",
          "type": "uint8"
        },
        {
          "indexed": false,
          "internalType": "uint256",
          "name": "_block",
          "type": "uint256"
        },
        {
          "indexed": false,
          "internalType": "contract User",
          "name": "_rater",
          "type": "address"
        },
        {
          "indexed": false,
          "internalType": "uint256",
          "name": "_valueSkill",
          "type": "uint256"
        }
      ],
      "name": "ItemRated",
      "type": "event"
    },
    {
      "anonymous": false,
      "inputs": [
        {
          "indexed": false,
          "internalType": "address",
          "name": "_to",
          "type": "address"
        },
        {
          "indexed": false,
          "internalType": "uint256",
          "name": "_amount",
          "type": "uint256"
        }
      ],
      "name": "NewCommitment",
      "type": "event"
    },
    {
      "anonymous": false,
      "inputs": [
        {
          "indexed": false,
          "internalType": "address",
          "name": "_to",
          "type": "address"
        }
      ],
      "name": "NewPermission",
      "type": "event"
    },
    {
      "anonymous": false,
      "inputs": [
        {
          "indexed": false,
          "internalType": "address",
          "name": "_to",
          "type": "address"
        }
      ],
      "name": "PermissionRevoked",
      "type": "event"
    },
    {
      "anonymous": false,
      "inputs": [
        {
          "indexed": false,
          "internalType": "contract Item",
          "name": "_item",
          "type": "address"
        },
        {
          "indexed": false,
          "internalType": "contract User",
          "name": "_user",
          "type": "address"
        },
        {
          "indexed": false,
          "internalType": "uint256",
          "name": "_amount",
          "type": "uint256"
        },
        {
          "indexed": false,
          "internalType": "uint256",
          "name": "_numberOfToken",
          "type": "uint256"
        }
      ],
      "name": "SuccessfulPayment",
      "type": "event"
    },
    {
      "payable": true,
      "stateMutability": "payable",
      "type": "fallback"
    },
    {
      "constant": true,
      "inputs": [],
      "name": "RSF",
      "outputs": [
        {
          "internalType": "address",
          "name": "",
          "type": "address"
        }
      ],
      "payable": false,
      "stateMutability": "view",
      "type": "function"
    },
    {
      "constant": true,
      "inputs": [
        {
          "internalType": "uint256",
          "name": "",
          "type": "uint256"
        }
      ],
      "name": "blockArray",
      "outputs": [
        {
          "internalType": "uint256",
          "name": "",
          "type": "uint256"
        }
      ],
      "payable": false,
      "stateMutability": "view",
      "type": "function"
    },
    {
      "constant": false,
      "inputs": [
        {
          "internalType": "address",
          "name": "_to",
          "type": "address"
        }
      ],
      "name": "changeOwner",
      "outputs": [],
      "payable": false,
      "stateMutability": "nonpayable",
      "type": "function"
    },
    {
      "constant": true,
      "inputs": [
        {
          "internalType": "address",
          "name": "_of",
          "type": "address"
        }
      ],
      "name": "checkForPermission",
      "outputs": [
        {
          "internalType": "uint256",
          "name": "",
          "type": "uint256"
        }
      ],
      "payable": false,
      "stateMutability": "view",
      "type": "function"
    },
    {
      "constant": true,
      "inputs": [
        {
          "internalType": "address",
          "name": "",
          "type": "address"
        }
      ],
      "name": "commitmentMap",
      "outputs": [
        {
          "internalType": "bool",
          "name": "granted",
          "type": "bool"
        },
        {
          "internalType": "uint256",
          "name": "amount",
          "type": "uint256"
        }
      ],
      "payable": false,
      "stateMutability": "view",
      "type": "function"
    },
    {
      "constant": true,
      "inputs": [
        {
          "internalType": "address",
          "name": "_of",
          "type": "address"
        }
      ],
      "name": "getPolicy",
      "outputs": [
        {
          "internalType": "uint256",
          "name": "_deadline",
          "type": "uint256"
        },
        {
          "internalType": "bool",
          "name": "_granted",
          "type": "bool"
        }
      ],
      "payable": false,
      "stateMutability": "view",
      "type": "function"
    },
    {
      "constant": true,
      "inputs": [
        {
          "internalType": "address",
          "name": "_of",
          "type": "address"
        },
        {
          "internalType": "uint256",
          "name": "_amount",
          "type": "uint256"
        }
      ],
      "name": "isCommited",
      "outputs": [
        {
          "internalType": "bool",
          "name": "",
          "type": "bool"
        }
      ],
      "payable": false,
      "stateMutability": "view",
      "type": "function"
    },
    {
      "constant": true,
      "inputs": [],
      "name": "name",
      "outputs": [
        {
          "internalType": "bytes32",
          "name": "",
          "type": "bytes32"
        }
      ],
      "payable": false,
      "stateMutability": "view",
      "type": "function"
    },
    {
      "constant": true,
      "inputs": [],
      "name": "owner",
      "outputs": [
        {
          "internalType": "address",
          "name": "",
          "type": "address"
        }
      ],
      "payable": false,
      "stateMutability": "view",
      "type": "function"
    },
    {
      "constant": true,
      "inputs": [
        {
          "internalType": "address",
          "name": "",
          "type": "address"
        }
      ],
      "name": "permissionMap",
      "outputs": [
        {
          "internalType": "bool",
          "name": "granted",
          "type": "bool"
        },
        {
          "internalType": "uint256",
          "name": "periodStart",
          "type": "uint256"
        }
      ],
      "payable": false,
      "stateMutability": "view",
      "type": "function"
    },
    {
      "constant": true,
      "inputs": [
        {
          "internalType": "uint256",
          "name": "",
          "type": "uint256"
        }
      ],
      "name": "raterArray",
      "outputs": [
        {
          "internalType": "contract User",
          "name": "",
          "type": "address"
        }
      ],
      "payable": false,
      "stateMutability": "view",
      "type": "function"
    },
    {
      "constant": false,
      "inputs": [
        {
          "internalType": "address",
          "name": "_to",
          "type": "address"
        }
      ],
      "name": "revokeCommitment",
      "outputs": [],
      "payable": false,
      "stateMutability": "nonpayable",
      "type": "function"
    },
    {
      "constant": false,
      "inputs": [
        {
          "internalType": "address",
          "name": "_to",
          "type": "address"
        }
      ],
      "name": "revokePermission",
      "outputs": [],
      "payable": false,
      "stateMutability": "nonpayable",
      "type": "function"
    },
    {
      "constant": true,
      "inputs": [
        {
          "internalType": "uint256",
          "name": "",
          "type": "uint256"
        }
      ],
      "name": "scoreArray",
      "outputs": [
        {
          "internalType": "uint256",
          "name": "",
          "type": "uint256"
        }
      ],
      "payable": false,
      "stateMutability": "view",
      "type": "function"
    },
    {
      "constant": true,
      "inputs": [],
      "name": "skill",
      "outputs": [
        {
          "internalType": "bytes32",
          "name": "",
          "type": "bytes32"
        }
      ],
      "payable": false,
      "stateMutability": "view",
      "type": "function"
    },
    {
      "constant": true,
      "inputs": [],
      "name": "tokenContract",
      "outputs": [
        {
          "internalType": "contract IERC20",
          "name": "",
          "type": "address"
        }
      ],
      "payable": false,
      "stateMutability": "view",
      "type": "function"
    },
    {
      "constant": true,
      "inputs": [],
      "name": "tokenValue",
      "outputs": [
        {
          "internalType": "uint256",
          "name": "",
          "type": "uint256"
        }
      ],
      "payable": false,
      "stateMutability": "view",
      "type": "function"
    },
    {
      "constant": true,
      "inputs": [
        {
          "internalType": "uint256",
          "name": "",
          "type": "uint256"
        }
      ],
      "name": "valueSkillArray",
      "outputs": [
        {
          "internalType": "uint256",
          "name": "",
          "type": "uint256"
        }
      ],
      "payable": false,
      "stateMutability": "view",
      "type": "function"
    },
    {
      "constant": false,
      "inputs": [],
      "name": "destroy",
      "outputs": [],
      "payable": false,
      "stateMutability": "nonpayable",
      "type": "function"
    },
    {
      "constant": false,
      "inputs": [
        {
          "internalType": "address",
          "name": "_to",
          "type": "address"
        }
      ],
      "name": "grantPermission",
      "outputs": [],
      "payable": false,
      "stateMutability": "nonpayable",
      "type": "function"
    },
    {
      "constant": false,
      "inputs": [
        {
          "internalType": "address",
          "name": "_to",
          "type": "address"
        },
        {
          "internalType": "uint256",
          "name": "amount",
          "type": "uint256"
        }
      ],
      "name": "commitPermission",
      "outputs": [],
      "payable": false,
      "stateMutability": "nonpayable",
      "type": "function"
    },
    {
      "constant": false,
      "inputs": [
        {
          "internalType": "uint8",
          "name": "_score",
          "type": "uint8"
        },
        {
          "internalType": "uint256",
          "name": "_valueSkill",
          "type": "uint256"
        }
      ],
      "name": "addRate",
      "outputs": [],
      "payable": false,
      "stateMutability": "nonpayable",
      "type": "function"
    },
    {
      "constant": true,
      "inputs": [
        {
          "internalType": "contract RatingFunction",
          "name": "_function",
          "type": "address"
        }
      ],
      "name": "computeScore",
      "outputs": [
        {
          "internalType": "uint256",
          "name": "",
          "type": "uint256"
        }
      ],
      "payable": false,
      "stateMutability": "view",
      "type": "function"
    },
    {
      "constant": true,
      "inputs": [],
      "name": "getAllRatings",
      "outputs": [
        {
          "internalType": "uint256[]",
          "name": "_scores",
          "type": "uint256[]"
        },
        {
          "internalType": "uint256[]",
          "name": "_blocks",
          "type": "uint256[]"
        },
        {
          "internalType": "contract User[]",
          "name": "_raters",
          "type": "address[]"
        },
        {
          "internalType": "uint256[]",
          "name": "_userValueSkills",
          "type": "uint256[]"
        }
      ],
      "payable": false,
      "stateMutability": "view",
      "type": "function"
    },
    {
      "constant": true,
      "inputs": [],
      "name": "ratingCount",
      "outputs": [
        {
          "internalType": "uint256",
          "name": "",
          "type": "uint256"
        }
      ],
      "payable": false,
      "stateMutability": "view",
      "type": "function"
    },
    {
      "constant": false,
      "inputs": [
        {
          "internalType": "contract User",
          "name": "_user",
          "type": "address"
        },
        {
          "internalType": "uint256",
          "name": "_amount",
          "type": "uint256"
        },
        {
          "internalType": "uint256",
          "name": "_totalTokenAmount",
          "type": "uint256"
        }
      ],
      "name": "successfulPayment",
      "outputs": [],
      "payable": false,
      "stateMutability": "nonpayable",
      "type": "function"
    },
    {
      "constant": true,
      "inputs": [],
      "name": "getTokenOwnedValue",
      "outputs": [
        {
          "internalType": "uint256",
          "name": "",
          "type": "uint256"
        }
      ],
      "payable": false,
      "stateMutability": "view",
      "type": "function"
    },
    {
      "constant": true,
      "inputs": [],
      "name": "getTokenOwned",
      "outputs": [
        {
          "internalType": "uint256",
          "name": "",
          "type": "uint256"
        }
      ],
      "payable": false,
      "stateMutability": "view",
      "type": "function"
    }
  ],
  "bytecode": "0x60806040523480156200001157600080fd5b5060405162002e0238038062002e02833981810160405260e08110156200003757600080fd5b81516020830151604080850151606086015160808701805193519597949692959194919392820192846401000000008211156200007357600080fd5b9083019060208201858111156200008957600080fd5b8251640100000000811182820188101715620000a457600080fd5b82525081516020918201929091019080838360005b83811015620000d3578181015183820152602001620000b9565b50505050905090810190601f168015620001015780820380516001836020036101000a031916815260200191505b50604052602001805160405193929190846401000000008211156200012557600080fd5b9083019060208201858111156200013b57600080fd5b82516401000000008111828201881017156200015657600080fd5b82525081516020918201929091019080838360005b83811015620001855781810151838201526020016200016b565b50505050905090810190601f168015620001b35780820380516001836020036101000a031916815260200191505b50604081815260209283015160008054600160a060020a031916600160a060020a038d8116919091179091557f741332e1000000000000000000000000000000000000000000000000000000008452600484018a905291519095508994509084169263741332e19260248082019391829003018186803b1580156200023757600080fd5b505afa1580156200024c573d6000803e3d6000fd5b505050506040513d60208110156200026357600080fd5b5051620002d157604080517f08c379a000000000000000000000000000000000000000000000000000000000815260206004820152601c60248201527f536b696c6c206465636c6172656420646f65736e277420657869737400000000604482015290519081900360640190fd5b600082116200032c576040517f08c379a000000000000000000000000000000000000000000000000000000000815260040180806020018281038252602281526020018062002de06022913960400191505060405180910390fd5b60048054600160a060020a031916600160a060020a0388161790556003889055600985905560405184908490620f424090620003689062000494565b60408101829052606080825284519082015283518190602080830191608084019188019080838360005b83811015620003ac57818101518382015260200162000392565b50505050905090810190601f168015620003da5780820380516001836020036101000a031916815260200191505b50838103825285518152855160209182019187019080838360005b838110156200040f578181015183820152602001620003f5565b50505050905090810190601f1680156200043d5780820380516001836020036101000a031916815260200191505b5095505050505050604051809103906000f08015801562000462573d6000803e3d6000fd5b50600a8054600160a060020a031916600160a060020a039290921691909117905550600b5550620004a2945050505050565b610adf806200230183390190565b611e4f80620004b26000396000f3fe6080604052600436106101bb5760003560e060020a900480638ec3cc07116100f0578063b07d133e1161008e578063eac977c411610068578063eac977c4146105cc578063f1f0c2c614610704578063f21459711461072e578063f62b6f0e14610761576101bb565b8063b07d133e14610536578063c34fe31c1461056f578063c5d46dfc14610599576101bb565b8063a4f97272116100ca578063a4f9727214610491578063a6103e35146104bb578063a6f9dae1146104d0578063a7dae30014610503576101bb565b80638ec3cc07146103fc578063930de4c514610411578063a3bf5b9a1461045e576101bb565b806355a373d61161015d5780637c3102d8116101375780637c3102d81461037557806383197ef0146103a857806388c86d1d146103bd5780638da5cb5b146103e7576101bb565b806355a373d6146102e15780636fcb6dc61461031257806377b761ba14610327576101bb565b80632d8e3278116101995780632d8e32781461020e5780633791dc6a1461024157806343f575af1461028d5780634e078803146102a2576101bb565b806306fdde03146101bd5780631ec7e345146101e457806324864081146101f9575b005b3480156101c957600080fd5b506101d2610794565b60408051918252519081900360200190f35b3480156101f057600080fd5b506101d261079a565b34801561020557600080fd5b506101d26107a0565b34801561021a57600080fd5b506101bb6004803603602081101561023157600080fd5b5035600160a060020a03166107a6565b34801561024d57600080fd5b506102746004803603602081101561026457600080fd5b5035600160a060020a0316610a52565b6040805192835290151560208301528051918290030190f35b34801561029957600080fd5b506101d2610a82565b3480156102ae57600080fd5b506101bb600480360360608110156102c557600080fd5b50600160a060020a038135169060208101359060400135610b17565b3480156102ed57600080fd5b506102f6610cf4565b60408051600160a060020a039092168252519081900360200190f35b34801561031e57600080fd5b506101d2610d03565b34801561033357600080fd5b5061035a6004803603602081101561034a57600080fd5b5035600160a060020a0316610d09565b60408051921515835260208301919091528051918290030190f35b34801561038157600080fd5b506101d26004803603602081101561039857600080fd5b5035600160a060020a0316610d28565b3480156103b457600080fd5b506101bb610d9c565b3480156103c957600080fd5b506101d2600480360360208110156103e057600080fd5b5035610df0565b3480156103f357600080fd5b506102f6610e0e565b34801561040857600080fd5b506101d2610e1d565b34801561041d57600080fd5b5061044a6004803603604081101561043457600080fd5b50600160a060020a038135169060200135610eca565b604080519115158252519081900360200190f35b34801561046a57600080fd5b506101bb6004803603602081101561048157600080fd5b5035600160a060020a0316610f38565b34801561049d57600080fd5b506101d2600480360360208110156104b457600080fd5b503561100f565b3480156104c757600080fd5b506102f661101c565b3480156104dc57600080fd5b506101bb600480360360208110156104f357600080fd5b5035600160a060020a031661102b565b34801561050f57600080fd5b506101bb6004803603604081101561052657600080fd5b5060ff81351690602001356110aa565b34801561054257600080fd5b506101bb6004803603604081101561055957600080fd5b50600160a060020a0381351690602001356112fd565b34801561057b57600080fd5b506101d26004803603602081101561059257600080fd5b50356115ab565b3480156105a557600080fd5b506101d2600480360360208110156105bc57600080fd5b5035600160a060020a03166115b8565b3480156105d857600080fd5b506105e1611700565b6040518080602001806020018060200180602001858103855289818151815260200191508051906020019060200280838360005b8381101561062d578181015183820152602001610615565b50505050905001858103845288818151815260200191508051906020019060200280838360005b8381101561066c578181015183820152602001610654565b50505050905001858103835287818151815260200191508051906020019060200280838360005b838110156106ab578181015183820152602001610693565b50505050905001858103825286818151815260200191508051906020019060200280838360005b838110156106ea5781810151838201526020016106d2565b505050509050019850505050505050505060405180910390f35b34801561071057600080fd5b506102f66004803603602081101561072757600080fd5b5035611862565b34801561073a57600080fd5b5061035a6004803603602081101561075157600080fd5b5035600160a060020a0316611889565b34801561076d57600080fd5b506101bb6004803603602081101561078457600080fd5b5035600160a060020a03166118a8565b60035481565b600b5481565b60055490565b600054600160a060020a031633146107f6576040805160e560020a62461bcd02815260206004820152600d6024820152600080516020611cfc833981519152604482015290519081900360640190fd5b600081905080600160a060020a031663a06b23216040518163ffffffff1660e060020a02815260040160206040518083038186803b15801561083757600080fd5b505afa15801561084b573d6000803e3d6000fd5b505050506040513d602081101561086157600080fd5b50516108a15760405160e560020a62461bcd028152600401808060200182810382526034815260200180611d1c6034913960400191505060405180910390fd5b600460009054906101000a9004600160a060020a0316600160a060020a031681600160a060020a031663a6103e356040518163ffffffff1660e060020a02815260040160206040518083038186803b1580156108fc57600080fd5b505afa158015610910573d6000803e3d6000fd5b505050506040513d602081101561092657600080fd5b5051600160a060020a0316146109705760405160e560020a62461bcd02815260040180806020018281038252602f815260200180611d50602f913960400191505060405180910390fd5b600054604080517f8da5cb5b0000000000000000000000000000000000000000000000000000000081529051600160a060020a0392831692841691638da5cb5b916004808301926020929190829003018186803b1580156109d057600080fd5b505afa1580156109e4573d6000803e3d6000fd5b505050506040513d60208110156109fa57600080fd5b5051600160a060020a03161415610a455760405160e560020a62461bcd028152600401808060200182810382526027815260200180611d7f6027913960400191505060405180910390fd5b610a4e8261197e565b5050565b600160a060020a03166000908152600160208190526040909120908101549054620186a09091019160ff90911690565b600a54604080517f70a082310000000000000000000000000000000000000000000000000000000081523360048201529051600092600160a060020a0316916370a08231916024808301926020929190829003018186803b158015610ae657600080fd5b505afa158015610afa573d6000803e3d6000fd5b505050506040513d6020811015610b1057600080fd5b5051905090565b6000839050610b2c81600b5484028501610eca565b610b6a5760405160e560020a62461bcd028152600401808060200182810382526028815260200180611df36028913960400191505060405180910390fd5b610b73816118a8565b6040805180820182526001808252436020808401918252600160a060020a038616600090815290839052939093209151825460ff191690151517825591519101558215610bf95760008054604051600160a060020a0390911691829186156108fc0291879190818181858888f19350505050158015610bf6573d6000803e3d6000fd5b50505b8115610c9f57600a54604080517f23b872dd000000000000000000000000000000000000000000000000000000008152336004820152306024820152604481018590529051600160a060020a03909216916323b872dd916064808201926020929091908290030181600087803b158015610c7257600080fd5b505af1158015610c86573d6000803e3d6000fd5b505050506040513d6020811015610c9c57600080fd5b50505b60408051308152600160a060020a03861660208201528082018590526060810184905290517f7663c1b175df28255c6f251b98ef25d213712d232d2ef6891e6b32c3d085a39c9181900360800190a150505050565b600a54600160a060020a031681565b60095481565b6002602052600090815260409020805460019091015460ff9091169082565b6000610d32611cb9565b50600160a060020a0382166000908152600160208181526040928390208351808501909452805460ff16151580855292015490830152610d76576001915050610d97565b43620186a08260200151011015610d91576002915050610d97565b60009150505b919050565b600054600160a060020a03163314610dec576040805160e560020a62461bcd02815260206004820152600d6024820152600080516020611cfc833981519152604482015290519081900360640190fd5b6000ff5b60068181548110610dfd57fe5b600091825260209091200154905081565b600054600160a060020a031681565b600b54600a54604080517f70a082310000000000000000000000000000000000000000000000000000000081523360048201529051600093610ec5939092600160a060020a03909116916370a0823191602480820192602092909190829003018186803b158015610e8d57600080fd5b505afa158015610ea1573d6000803e3d6000fd5b505050506040513d6020811015610eb757600080fd5b50519063ffffffff611a9716565b905090565b6000610ed4611cb9565b50600160a060020a0383166000908152600260209081526040918290208251808401909352805460ff16151583526001015490820181905283148015610f1d5750805115156001145b15610f2c576001915050610f32565b60009150505b92915050565b33600160a060020a0382161480610f595750600054600160a060020a031633145b610f975760405160e560020a62461bcd02815260040180806020018281038252602b815260200180611cd1602b913960400191505060405180910390fd5b60408051808201825260008082526020808301828152600160a060020a0386168084526001808452938690209451855460ff191690151517855590519390920192909255825190815291517f3541f93cbae8c4be65491b824efe1570976e740b18c6aa441db5291f4de4c9219281900390910190a150565b60088181548110610dfd57fe5b600454600160a060020a031681565b600054600160a060020a0316331461107b576040805160e560020a62461bcd02815260206004820152600d6024820152600080516020611cfc833981519152604482015290519081900360640190fd5b6000805473ffffffffffffffffffffffffffffffffffffffff1916600160a060020a0392909216919091179055565b3380436110b682610d28565b1561110b576040805160e560020a62461bcd02815260206004820152601f60248201527f4e6f207065726d697373696f6e20746f20726174652074686973204974656d00604482015290519081900360640190fd5b60018560ff16101580156111235750600a8560ff1611155b611177576040805160e560020a62461bcd02815260206004820152601260248201527f53636f7265206f7574206f66207363616c650000000000000000000000000000604482015290519081900360640190fd5b61118083610f38565b600580546001808201835560ff88167f036b6384b5eca791c62761152d0c79bb0604c104a5fb6f4eb0703f3154bb3db0909201919091556006805480830182557ff652222313e28459528d920b65115c16c04f3efc82aaedc97be59f3f377c0d3f01849055600780548084019091557fa66cc928b5edb82af9bd49922954155ab7b0942694bea4ce44661d9a8736c68801805473ffffffffffffffffffffffffffffffffffffffff1916600160a060020a0387161790556008805492830181556000527ff3f7a9fe364faab93b216da50a3214154f22a0a2b415b23a84c8169e8b636ee39091018690555490541461127457fe5b6007546006541461128157fe5b6008546007541461128e57fe5b831561129e5761129e8385611afa565b6040805130815260ff87166020820152808201839052600160a060020a03841660608201526080810186905290517f9527e4448f4f31a7f55bfa1d2320038a4163c477398e810b0d0e0a2f3c077d819181900360a00190a15050505050565b600054600160a060020a0316331461134d576040805160e560020a62461bcd02815260206004820152600d6024820152600080516020611cfc833981519152604482015290519081900360640190fd5b600082905080600160a060020a031663a06b23216040518163ffffffff1660e060020a02815260040160206040518083038186803b15801561138e57600080fd5b505afa1580156113a2573d6000803e3d6000fd5b505050506040513d60208110156113b857600080fd5b50516113f85760405160e560020a62461bcd028152600401808060200182810382526034815260200180611d1c6034913960400191505060405180910390fd5b600460009054906101000a9004600160a060020a0316600160a060020a031681600160a060020a031663a6103e356040518163ffffffff1660e060020a02815260040160206040518083038186803b15801561145357600080fd5b505afa158015611467573d6000803e3d6000fd5b505050506040513d602081101561147d57600080fd5b5051600160a060020a0316146114c75760405160e560020a62461bcd02815260040180806020018281038252602f815260200180611d50602f913960400191505060405180910390fd5b600054604080517f8da5cb5b0000000000000000000000000000000000000000000000000000000081529051600160a060020a0392831692841691638da5cb5b916004808301926020929190829003018186803b15801561152757600080fd5b505afa15801561153b573d6000803e3d6000fd5b505050506040513d602081101561155157600080fd5b5051600160a060020a0316141561159c5760405160e560020a62461bcd028152600401808060200182810382526027815260200180611d7f6027913960400191505060405180910390fd5b6115a68383611b99565b505050565b60058181548110610dfd57fe5b600081600160a060020a031663337bf6746005600660086040518463ffffffff1660e060020a02815260040180806020018060200180602001848103845287818154815260200191508054801561162e57602002820191906000526020600020905b81548152602001906001019080831161161a575b5050848103835286818154815260200191508054801561166d57602002820191906000526020600020905b815481526020019060010190808311611659575b505084810382528581815481526020019150805480156116ac57602002820191906000526020600020905b815481526020019060010190808311611698575b5050965050505050505060206040518083038186803b1580156116ce57600080fd5b505afa1580156116e2573d6000803e3d6000fd5b505050506040513d60208110156116f857600080fd5b505192915050565b606080606080600580548060200260200160405190810160405280929190818152602001828054801561175257602002820191906000526020600020905b81548152602001906001019080831161173e575b5050505050935060068054806020026020016040519081016040528092919081815260200182805480156117a557602002820191906000526020600020905b815481526020019060010190808311611791575b50505050509250600780548060200260200160405190810160405280929190818152602001828054801561180257602002820191906000526020600020905b8154600160a060020a031681526001909101906020018083116117e4575b50505050509150600880548060200260200160405190810160405280929190818152602001828054801561185557602002820191906000526020600020905b815481526020019060010190808311611841575b5050505050905090919293565b6007818154811061186f57fe5b600091825260209091200154600160a060020a0316905081565b6001602081905260009182526040909120805491015460ff9091169082565b33600160a060020a03821614806118c95750600054600160a060020a031633145b6119075760405160e560020a62461bcd02815260040180806020018281038252602b815260200180611cd1602b913960400191505060405180910390fd5b60408051808201825260008082526020808301828152600160a060020a03861680845260028352928590209351845460ff191690151517845551600190930192909255825190815291517f963eaa1310a95b879edd6190c81702bcbbfa814698155ebb751b2d4e85cd2e699281900390910190a150565b600054600160a060020a031633146119ce576040805160e560020a62461bcd02815260206004820152600d6024820152600080516020611cfc833981519152604482015290519081900360640190fd5b600054600160a060020a0382811691161415611a1e5760405160e560020a62461bcd02815260040180806020018281038252602c815260200180611dc7602c913960400191505060405180910390fd5b6040805180820182526001808252436020808401918252600160a060020a03861660008181528483528690209451855460ff191690151517855591519390920192909255825191825291517fceebffeea71a081da3958f44bb5272c02bc06e6a287e49bec90d854491c87134929181900390910190a150565b600082611aa657506000610f32565b82820282848281611ab357fe5b0414611af35760405160e560020a62461bcd028152600401808060200182810382526021815260200180611da66021913960400191505060405180910390fd5b9392505050565b600a54604080517fa9059cbb000000000000000000000000000000000000000000000000000000008152600160a060020a038581166004830152602482018590529151919092169163a9059cbb9160448083019260209291908290030181600087803b158015611b6957600080fd5b505af1158015611b7d573d6000803e3d6000fd5b505050506040513d6020811015611b9357600080fd5b50505050565b600054600160a060020a03163314611be9576040805160e560020a62461bcd02815260206004820152600d6024820152600080516020611cfc833981519152604482015290519081900360640190fd5b600054600160a060020a0383811691161415611c395760405160e560020a62461bcd02815260040180806020018281038252602c815260200180611dc7602c913960400191505060405180910390fd5b60408051808201825260018082526020808301858152600160a060020a0387166000818152600284528690209451855460ff191690151517855590519390920192909255825190815290810183905281517f7e9a3ca048c9f71ad939adc229e657127468a8707ca72a9d69cab142e5176bd7929181900390910190a15050565b60408051808201909152600080825260208201529056fe596f752063616e6e6f74207265766f6b65207065726d697373696f6e20746f206f746865722075736572734e6f7420746865206f776e657200000000000000000000000000000000000000526174696e672063616e20626520646f6e65206f6e6c792062792072656769737465726564205573657220636f6e747261637473557365722073686f756c642072617465206f6e6c79204974656d732062656c6f6e696e6720746f206974732052534643616e6e6f74206772616e74207065726d697373696f6e7320746f205573657220697473656c66536166654d6174683a206d756c7469706c69636174696f6e206f766572666c6f77546865206f776e65722063616e6e6f74206772616e74207065726d697373696f6e20746f2068696d73656c6653756d206f6620616d6f756e7420616e6420746f6b656e7320646f6573206e6f74206d6174636820a265627a7a72315820a281d94dffcbbcda4e3ca1741ab4e5e7313f2b9f462700cd87822d8b182b99a764736f6c634300050d0032608060405234801561001057600080fd5b50604051610adf380380610adf8339818101604052606081101561003357600080fd5b810190808051604051939291908464010000000082111561005357600080fd5b90830190602082018581111561006857600080fd5b825164010000000081118282018810171561008257600080fd5b82525081516020918201929091019080838360005b838110156100af578181015183820152602001610097565b50505050905090810190601f1680156100dc5780820380516001836020036101000a031916815260200191505b50604052602001805160405193929190846401000000008211156100ff57600080fd5b90830190602082018581111561011457600080fd5b825164010000000081118282018810171561012e57600080fd5b82525081516020918201929091019080838360005b8381101561015b578181015183820152602001610143565b50505050905090810190601f1680156101885780820380516001836020036101000a031916815260200191505b5060405260209081015185519093506101a792506000918601906101d9565b5081516101bb9060019060208501906101d9565b50336000908152600360205260409020819055600255506102749050565b828054600181600116156101000203166002900490600052602060002090601f016020900481019282601f1061021a57805160ff1916838001178555610247565b82800160010185558215610247579182015b8281111561024757825182559160200191906001019061022c565b50610253929150610257565b5090565b61027191905b80821115610253576000815560010161025d565b90565b61085c806102836000396000f3fe608060405234801561001057600080fd5b50600436106100c6576000357c0100000000000000000000000000000000000000000000000000000000900480636ebcf6071161008e5780636ebcf607146101e057806370a082311461020657806395d89b411461022c578063a9059cbb14610234578063dd336c1214610260578063dd62ed3e1461028e576100c6565b806306fdde03146100cb578063095ea7b31461014857806318160ddd1461018857806323b872dd146101a25780633eaaf86b146101d8575b600080fd5b6100d36102bc565b6040805160208082528351818301528351919283929083019185019080838360005b8381101561010d5781810151838201526020016100f5565b50505050905090810190601f16801561013a5780820380516001836020036101000a031916815260200191505b509250505060405180910390f35b6101746004803603604081101561015e57600080fd5b50600160a060020a03813516906020013561034a565b604080519115158252519081900360200190f35b6101906103b0565b60408051918252519081900360200190f35b610174600480360360608110156101b857600080fd5b50600160a060020a038135811691602081013590911690604001356103b6565b610190610518565b610190600480360360208110156101f657600080fd5b5035600160a060020a031661051e565b6101906004803603602081101561021c57600080fd5b5035600160a060020a0316610530565b6100d361054b565b6101746004803603604081101561024a57600080fd5b50600160a060020a0381351690602001356105a5565b6101906004803603604081101561027657600080fd5b50600160a060020a0381358116916020013516610671565b610190600480360360408110156102a457600080fd5b50600160a060020a038135811691602001351661068e565b6000805460408051602060026001851615610100026000190190941693909304601f810184900484028201840190925281815292918301828280156103425780601f1061031757610100808354040283529160200191610342565b820191906000526020600020905b81548152906001019060200180831161032557829003601f168201915b505050505081565b336000818152600460209081526040808320600160a060020a038716808552908352818420869055815186815291519394909390927f8c5be1e5ebec7d5bd14f71427d1e84f3dd0314c0f7b2291e5b200ac8c7c3b925928290030190a350600192915050565b60025490565b600160a060020a0383166000908152600360205260408120548211156103db57600080fd5b600160a060020a038416600090815260046020908152604080832033845290915290205482111561040b57600080fd5b600160a060020a038416600090815260036020526040902054610434908363ffffffff6106b916565b600160a060020a038086166000908152600360205260408082209390935590851681522054610469908363ffffffff61070216565b600160a060020a0380851660009081526003602090815260408083209490945591871681526004825282812033825290915220546104ad908363ffffffff6106b916565b600160a060020a03808616600081815260046020908152604080832033845282529182902094909455805186815290519287169391927fddf252ad1be2c89b69c2b068fc378daa952ba7f163c4a11628f55a4df523b3ef929181900390910190a35060019392505050565b60025481565b60036020526000908152604090205481565b600160a060020a031660009081526003602052604090205490565b60018054604080516020600284861615610100026000190190941693909304601f810184900484028201840190925281815292918301828280156103425780601f1061031757610100808354040283529160200191610342565b336000908152600360205260408120548211156105c157600080fd5b336000908152600360205260409020546105e1908363ffffffff6106b916565b3360009081526003602052604080822092909255600160a060020a03851681522054610613908363ffffffff61070216565b600160a060020a0384166000818152600360209081526040918290209390935580518581529051919233927fddf252ad1be2c89b69c2b068fc378daa952ba7f163c4a11628f55a4df523b3ef9281900390910190a350600192915050565b600460209081526000928352604080842090915290825290205481565b600160a060020a03918216600090815260046020908152604080832093909416825291909152205490565b60006106fb83836040518060400160405280601e81526020017f536166654d6174683a207375627472616374696f6e206f766572666c6f770000815250610776565b9392505050565b6000828201838110156106fb57604080517f08c379a000000000000000000000000000000000000000000000000000000000815260206004820152601b60248201527f536166654d6174683a206164646974696f6e206f766572666c6f770000000000604482015290519081900360640190fd5b6000818484111561081f576040517f08c379a00000000000000000000000000000000000000000000000000000000081526004018080602001828103825283818151815260200191508051906020019080838360005b838110156107e45781810151838201526020016107cc565b50505050905090810190601f1680156108115780820380516001836020036101000a031916815260200191505b509250505060405180910390fd5b50505090039056fea265627a7a72315820c3088b06ea1a9ff2a90a6879aa4bcb1dec4f4b32949b488f2d051de16f38865264736f6c634300050d0032546f6b656e2076616c7565206d7573742062652067726561746572207468656e2030",
  "source": "pragma solidity >=0.4.21 <0.6.0;\n\n\nimport \"./User.sol\";\nimport \"./Interfaces.sol\";\nimport \"./RatingFunction.sol\";\nimport \"./AssetStorage.sol\";\nimport \"./Token/ERC20.sol\";\nimport \"@openzeppelin/contracts/math/SafeMath.sol\";\n\n/// @author Andrea Lisi, Samuel Fabrizi\n/// @title Item\n/// @notice This contract represents an item of the RatingSystemFramework. Items can be rated by external accounts or contract only if they have the permissions to do that\n/// @dev The Item contract inherits from Permissioned. It defines the structure of a Rating and it keeps a RatingFunction instance to let the users know how its final score will be computed\ncontract Item is Permissioned, Commited {\n    using SafeMath for uint256;\n\n    // Data\n    bytes32         public name;                // Item nickname\n    address         public RSF;                 // The RatingSystemFramework the Item belongs to\n    uint[]          public scoreArray;          // Array of scores\n    uint[]          public blockArray;          // Array of blocks the scores belong to\n    User[]          public raterArray;          // Array of raters\n    uint[]          public valueSkillArray;     // Array of rater skill value\n    bytes32         public skill;               // Item skill\n    IERC20          public tokenContract;       // Item token contract address\n    uint256         public tokenValue;          // Item token value\n\n\n    // Events\n    event ItemRated(Item _item, uint8 _score, uint _block, User _rater, uint _valueSkill);\n    event SuccessfulPayment(Item _item, User _user, uint _amount, uint256 _numberOfToken);\n\n\n    /// @param _name the nickname of the Item\n    /// @param _owner the owner's address of the Item\n    /// @param _rsf The RatingSystemFramework the Item belongs to\n    /// @param _skill The skill of the item\n    /// @param _nameToken The name of the tokens owned by the item\n    /// @param _symbolToken The symbol of the tokens owned by the item\n    /// @param _tokenValue The value of the tokens owned by the item\n    /// @dev The constructor calls the Permisioned constructor\n    constructor (bytes32 _name,             \n                 address _owner,            \n                 address _rsf,\n                 bytes32 _skill,\n                 string memory _nameToken,\n                 string memory _symbolToken,\n                 uint256 _tokenValue\n                 )               \n                 \n                 Permissioned(_owner)\n                 \n                 public {\n        RatingSystemFramework rsf = RatingSystemFramework(_rsf);\n        require(rsf.checkSkillExistence(_skill), \"Skill declared doesn't exist\");\n        require(_tokenValue > 0, \"Token value must be greater then 0\");\n        RSF = _rsf;\n        name = _name;\n        skill = _skill;\n        tokenContract = new ERC20(_nameToken, _symbolToken, 1000000);\n        tokenValue = _tokenValue;\n    }\n\n\n    /// @notice De-activate this contract\n    function destroy() external isOwner {\n        // We don't assume User contracts to store ether\n        selfdestruct(address(uint160(0x0))); // cast 0x0 to address payable\n    }\n\n\n    /// @notice Grant the permission to access to this contract to only User contract belonging to the same RatingSystemFramework\n    /// @param _to The address meant to have permission\n    /// @dev After checking _to is a correct User contract call the parent function\n    function grantPermission(address _to) public isOwner {\n\n        // Check if the User and this Item belong to the same RSF\n        User u = User(_to);\n            // Require sender is User of RSF\n        require(u.iAmRegisteredUser(), \"Rating can be done only by registered User contracts\");\n            // Require User's RSF == my RSF\n        require(u.RSF() == RSF, \"User should rate only Items beloning to its RSF\");\n        require(u.owner() != owner, \"Cannot grant permissions to User itself\");\n\n        // Call parent\n        super.grantPermission(_to);\n    }\n\n\n    /// @notice Store a permission promise only if the User pays the input amount\n    /// @param _to The address grant the permission\n    /// @param amount The expected amount\n    /// @dev After checking _to is a correct User contract call the parent function\n    function commitPermission(address _to, uint amount) public isOwner {\n\n        // Check if the User and this Item belong to the same RSF\n        User u = User(_to);\n            // Require sender is User of RSF\n        require(u.iAmRegisteredUser(), \"Rating can be done only by registered User contracts\");\n            // Require User's RSF == my RSF\n        require(u.RSF() == RSF, \"User should rate only Items beloning to its RSF\");\n        require(u.owner() != owner, \"Cannot grant permissions to User itself\");\n\n        super.commitPermission(_to, amount);\n    }\n\n\n    /// @notice Rate this Item\n    /// @param _score The score to assign to this item\n    /// @param _valueSkill The skill value of the rater\n    /// @dev Check whether caller has the permission on this contract (since it's an extension of Permissioned)\n    function addRate(uint8 _score, uint _valueSkill) external {\n\n        address _sender = msg.sender;   // Store the sender as \"address\"\n        User _rater = User(_sender);    // Store the sender as \"User\"\n        uint _block = block.number;\n\n        // Check for permissions to rate and the score interval\n\n        require(checkForPermission(_sender) == 0, \"No permission to rate this Item\");\n        require(_score >= 1 && _score <= 10, \"Score out of scale\");\n\n        revokePermission(_sender);\n\n        scoreArray.push(_score);\n        blockArray.push(_block);\n        raterArray.push(_rater);\n        valueSkillArray.push(_valueSkill);\n\n\n        assert(scoreArray.length == blockArray.length);        \n        assert(blockArray.length == raterArray.length);\n        assert(raterArray.length == valueSkillArray.length);\n\n        // if value skill is greater then zero, item issues an amount of token to the rater\n        if (_valueSkill > 0)\n            issueToken(_sender, _valueSkill);\n        \n        emit ItemRated(this, _score, _block, _rater, _valueSkill);\n    }\n    \n\n    /// @notice Compute the final score\n    /// @param _function The RatingFunction to use to compute the final score\n    /// @return The final score of this Item\n    function computeScore(RatingFunction _function) external view returns (uint) {\n\n        return _function.compute(scoreArray, blockArray, valueSkillArray);\n    }\n\n\n    /// @notice Get all the ratings information of this Item\n    /// @return _scores: the array of scores\n    /// @return _blocks: the array of blocks\n    /// @return _raters: the array of User addresses which rated this Item\n    /// @return _raters: the array of skill values of raters\n    function getAllRatings() public view returns (  uint[] memory _scores, \n                                                    uint[] memory _blocks, \n                                                    User[] memory _raters,\n                                                    uint[] memory _userValueSkills\n                                                    ) {\n\n        _scores = scoreArray;\n        _blocks = blockArray;\n        _raters = raterArray;\n        _userValueSkills = valueSkillArray;\n    }\n\n\n    /// @notice Get the number of ratings performed on this Item\n    /// @return The number of ratings\n    function ratingCount() external view returns(uint) {\n\n        return scoreArray.length;\n    }\n\n\n    /// @notice Confirm user payment and transfer token \n    /// @param _user User that sends the payment\n    /// @param _amount Amount of payment\n    /// @param _totalTokenAmount Amount of token to transfer\n    function successfulPayment(User _user, uint _amount, uint256 _totalTokenAmount) external {\n\n        address _userA = address(_user);\n        require(super.isCommited(_userA, _amount + _totalTokenAmount*tokenValue), \"Sum of amount and tokens does not match \");\n\n        super.revokeCommitment(_userA);\n        permissionMap[_userA] = PermissionPolicy({granted: true, periodStart: block.number});            \n\n        if (_amount > 0){\n            address payable ownerItem = address(uint160(owner));\n            ownerItem.transfer(_amount);\n        }\n        if (_totalTokenAmount > 0)\n            tokenContract.transferFrom(msg.sender, address(this), _totalTokenAmount);\n\n        emit SuccessfulPayment(this, _user, _amount, _totalTokenAmount);\n    }\n\n\n    /// @notice Get the value of tokens owned by function caller\n    /// @return The value of tokens owned by function caller\n    function getTokenOwnedValue() external view returns(uint256){\n\n        return tokenContract.balanceOf(msg.sender).mul(tokenValue);\n    }\n\n\n    /// @notice Get the number of tokens owned by function caller\n    /// @return The number of tokens owned by function caller\n    function getTokenOwned() external view returns(uint256){\n\n        return tokenContract.balanceOf(msg.sender);\n    }\n\n    /// @notice Transfer a number of tokens to an address\n    /// @param _to Address that receives the tokens\n    /// @param _numberOfToken Number of tokens to transfer\n    function issueToken(address _to, uint256 _numberOfToken) private {\n\n        tokenContract.transfer(_to, _numberOfToken);\n    }\n\n\n    function () external payable {}\n\n\n}\n",
  "sourcePath": "/Users/fram3/code/nitrotest/Decentralized-Rating-Platform/contracts/Item.sol",
  "compiler": {
    "name": "solc",
    "version": "0.5.13+commit.5b0b510c.Emscripten.clang"
  },
  "schemaVersion": "3.4.16",
  "updatedAt": "2024-01-29T22:24:42.589Z",
  "networkType": "ethereum",
  "devdoc": {
    "author": "Andrea Lisi, Samuel Fabrizi",
    "details": "The Item contract inherits from Permissioned. It defines the structure of a Rating and it keeps a RatingFunction instance to let the users know how its final score will be computed",
    "methods": {
      "addRate(uint8,uint256)": {
        "details": "Check whether caller has the permission on this contract (since it's an extension of Permissioned)",
        "params": {
          "_score": "The score to assign to this item",
          "_valueSkill": "The skill value of the rater"
        }
      },
      "changeOwner(address)": {
        "params": {
          "_to": "The new owner of this contract "
        }
      },
      "checkForPermission(address)": {
        "details": "0: Permission granted; 1: No permission granted; 2: Permission granted but out of date",
        "params": {
          "_of": "The address to check"
        }
      },
      "commitPermission(address,uint256)": {
        "details": "After checking _to is a correct User contract call the parent function",
        "params": {
          "_to": "The address grant the permission",
          "amount": "The expected amount"
        }
      },
      "computeScore(address)": {
        "params": {
          "_function": "The RatingFunction to use to compute the final score"
        },
        "return": "The final score of this Item"
      },
      "constructor": {
        "details": "The constructor calls the Permisioned constructor",
        "params": {
          "_name": "the nickname of the Item",
          "_nameToken": "The name of the tokens owned by the item",
          "_owner": "the owner's address of the Item",
          "_rsf": "The RatingSystemFramework the Item belongs to",
          "_skill": "The skill of the item",
          "_symbolToken": "The symbol of the tokens owned by the item",
          "_tokenValue": "The value of the tokens owned by the item"
        }
      },
      "getAllRatings()": {
        "return": "_scores: the array of scores_blocks: the array of blocks_raters: the array of User addresses which rated this Item_raters: the array of skill values of raters"
      },
      "getPolicy(address)": {
        "return": "_deadline: the deadline period (block number)_granted: the flag \"permission granted\""
      },
      "getTokenOwned()": {
        "return": "The number of tokens owned by function caller"
      },
      "getTokenOwnedValue()": {
        "return": "The value of tokens owned by function caller"
      },
      "grantPermission(address)": {
        "details": "After checking _to is a correct User contract call the parent function",
        "params": {
          "_to": "The address meant to have permission"
        }
      },
      "isCommited(address,uint256)": {
        "params": {
          "_amount": "The amount to check",
          "_of": "The address to check"
        }
      },
      "ratingCount()": {
        "return": "The number of ratings"
      },
      "revokeCommitment(address)": {
        "details": "Only the owner of this contract or the receiver itself can revoke the permission to the receiver",
        "params": {
          "_to": "The commited address"
        }
      },
      "revokePermission(address)": {
        "details": "Only the owner of this contract or the receiver itself can revoke the permission to the receiver",
        "params": {
          "_to": "The address to revoke permission"
        }
      },
      "successfulPayment(address,uint256,uint256)": {
        "params": {
          "_amount": "Amount of payment",
          "_totalTokenAmount": "Amount of token to transfer",
          "_user": "User that sends the payment"
        }
      }
    },
    "title": "Item"
  },
  "userdoc": {
    "methods": {
      "addRate(uint8,uint256)": {
        "notice": "Rate this Item"
      },
      "changeOwner(address)": {
        "notice": "This function provides the possibility to change the owner"
      },
      "checkForPermission(address)": {
        "notice": "Check the permission status of a certain address"
      },
      "commitPermission(address,uint256)": {
        "notice": "Store a permission promise only if the User pays the input amount"
      },
      "computeScore(address)": {
        "notice": "Compute the final score"
      },
      "destroy()": {
        "notice": "De-activate this contract"
      },
      "getAllRatings()": {
        "notice": "Get all the ratings information of this Item"
      },
      "getPolicy(address)": {
        "notice": "Get current permission policy of the caller"
      },
      "getTokenOwned()": {
        "notice": "Get the number of tokens owned by function caller"
      },
      "getTokenOwnedValue()": {
        "notice": "Get the value of tokens owned by function caller"
      },
      "grantPermission(address)": {
        "notice": "Grant the permission to access to this contract to only User contract belonging to the same RatingSystemFramework"
      },
      "isCommited(address,uint256)": {
        "notice": "Check if an address has commited a certain amount"
      },
      "ratingCount()": {
        "notice": "Get the number of ratings performed on this Item"
      },
      "revokeCommitment(address)": {
        "notice": "Revoke the commitment"
      },
      "revokePermission(address)": {
        "notice": "Revoke the permission to access to this contract to a certain address (contract or EOA)"
      },
      "successfulPayment(address,uint256,uint256)": {
        "notice": "Confirm user payment and transfer token "
      }
    },
    "notice": "This contract represents an item of the RatingSystemFramework. Items can be rated by external accounts or contract only if they have the permissions to do that"
  }
}