{
  "contractName": "RatingSystemFramework",
  "abi": [
    {
      "inputs": [],
      "payable": false,
      "stateMutability": "nonpayable",
      "type": "constructor"
    },
    {
      "anonymous": false,
      "inputs": [
        {
          "indexed": false,
          "internalType": "contract User",
          "name": "_userContract",
          "type": "address"
        }
      ],
      "name": "UserCreated",
      "type": "event"
    },
    {
      "constant": false,
      "inputs": [
        {
          "internalType": "address",
          "name": "_to",
          "type": "address"
        }
      ],
      "name": "changeOwner",
      "outputs": [],
      "payable": false,
      "stateMutability": "nonpayable",
      "type": "function"
    },
    {
      "constant": true,
      "inputs": [],
      "name": "dbSkills",
      "outputs": [
        {
          "internalType": "contract DatabaseSkills",
          "name": "",
          "type": "address"
        }
      ],
      "payable": false,
      "stateMutability": "view",
      "type": "function"
    },
    {
      "constant": true,
      "inputs": [],
      "name": "functionRegistry",
      "outputs": [
        {
          "internalType": "contract FunctionRegistry",
          "name": "",
          "type": "address"
        }
      ],
      "payable": false,
      "stateMutability": "view",
      "type": "function"
    },
    {
      "constant": true,
      "inputs": [],
      "name": "owner",
      "outputs": [
        {
          "internalType": "address",
          "name": "",
          "type": "address"
        }
      ],
      "payable": false,
      "stateMutability": "view",
      "type": "function"
    },
    {
      "constant": false,
      "inputs": [
        {
          "internalType": "bytes32",
          "name": "_name",
          "type": "bytes32"
        }
      ],
      "name": "createUser",
      "outputs": [],
      "payable": false,
      "stateMutability": "nonpayable",
      "type": "function"
    },
    {
      "constant": false,
      "inputs": [
        {
          "internalType": "contract User",
          "name": "_user",
          "type": "address"
        }
      ],
      "name": "deleteUser",
      "outputs": [],
      "payable": false,
      "stateMutability": "nonpayable",
      "type": "function"
    },
    {
      "constant": true,
      "inputs": [],
      "name": "getMyUserContract",
      "outputs": [
        {
          "internalType": "contract User",
          "name": "",
          "type": "address"
        }
      ],
      "payable": false,
      "stateMutability": "view",
      "type": "function"
    },
    {
      "constant": true,
      "inputs": [],
      "name": "getUsers",
      "outputs": [
        {
          "internalType": "address[]",
          "name": "",
          "type": "address[]"
        }
      ],
      "payable": false,
      "stateMutability": "view",
      "type": "function"
    },
    {
      "constant": true,
      "inputs": [
        {
          "internalType": "contract User",
          "name": "_user",
          "type": "address"
        }
      ],
      "name": "isIn",
      "outputs": [
        {
          "internalType": "bool",
          "name": "",
          "type": "bool"
        }
      ],
      "payable": false,
      "stateMutability": "view",
      "type": "function"
    },
    {
      "constant": true,
      "inputs": [],
      "name": "userCount",
      "outputs": [
        {
          "internalType": "uint256",
          "name": "",
          "type": "uint256"
        }
      ],
      "payable": false,
      "stateMutability": "view",
      "type": "function"
    },
    {
      "constant": true,
      "inputs": [
        {
          "internalType": "bytes32",
          "name": "_skill",
          "type": "bytes32"
        }
      ],
      "name": "checkSkillExistence",
      "outputs": [
        {
          "internalType": "bool",
          "name": "",
          "type": "bool"
        }
      ],
      "payable": false,
      "stateMutability": "view",
      "type": "function"
    }
  ],
  "bytecode": "0x608060405234801561001057600080fd5b5060008054600160a060020a031916339081179091556040516100329061013d565b600160a060020a03909116815260405190819003602001906000f08015801561005f573d6000803e3d6000fd5b5060018054600160a060020a031916600160a060020a0392909216919091179055604051309061008e9061014a565b600160a060020a03909116815260405190819003602001906000f0801580156100bb573d6000803e3d6000fd5b5060028054600160a060020a031916600160a060020a039290921691909117905560405133906100ea90610157565b600160a060020a03909116815260405190819003602001906000f080158015610117573d6000803e3d6000fd5b5060038054600160a060020a031916600160a060020a0392909216919091179055610164565b6104ab8061602083390190565b610738806164cb83390190565b6104a280616c0383390190565b615ead806101736000396000f3fe608060405234801561001057600080fd5b50600436106100c5576000357c0100000000000000000000000000000000000000000000000000000000900480638da5cb5b1161008e5780638da5cb5b146101b957806396210c51146101c1578063a6f9dae1146101e7578063aa45d68a1461020d578063abf7bfd814610215578063bd09f02814610232576100c5565b8062ce8e3e146100ca57806307973ccf1461012257806310e4590b1461013c5780635c60f22614610160578063741332e114610188575b600080fd5b6100d261023a565b60408051602080825283518183015283519192839290830191858101910280838360005b8381101561010e5781810151838201526020016100f6565b505050509050019250505060405180910390f35b61012a610366565b60408051918252519081900360200190f35b6101446103f5565b60408051600160a060020a039092168252519081900360200190f35b6101866004803603602081101561017657600080fd5b5035600160a060020a0316610404565b005b6101a56004803603602081101561019e57600080fd5b503561051f565b604080519115158252519081900360200190f35b6101446105b6565b6101a5600480360360208110156101d757600080fd5b5035600160a060020a03166105c5565b610186600480360360208110156101fd57600080fd5b5035600160a060020a031661062f565b6101446106d7565b6101866004803603602081101561022b57600080fd5b50356106e6565b610144610885565b600254604080517f67e4ac2c0000000000000000000000000000000000000000000000000000000081529051606092600160a060020a0316916367e4ac2c916004808301926000929190829003018186803b15801561029857600080fd5b505afa1580156102ac573d6000803e3d6000fd5b505050506040513d6000823e601f3d908101601f1916820160405260208110156102d557600080fd5b81019080805160405193929190846401000000008211156102f557600080fd5b90830190602082018581111561030a57600080fd5b825186602082028301116401000000008211171561032757600080fd5b82525081516020918201928201910280838360005b8381101561035457818101518382015260200161033c565b50505050905001604052505050905090565b600254604080517fa87d942c0000000000000000000000000000000000000000000000000000000081529051600092600160a060020a03169163a87d942c916004808301926020929190829003018186803b1580156103c457600080fd5b505afa1580156103d8573d6000803e3d6000fd5b505050506040513d60208110156103ee57600080fd5b5051905090565b600154600160a060020a031681565b33600090815260046020526040902054600160a060020a03828116911614610477576040517f08c379a000000000000000000000000000000000000000000000000000000000815260040180806020018281038252602a815260200180615e4f602a913960400191505060405180910390fd5b336000908152600460208190526040808320805473ffffffffffffffffffffffffffffffffffffffff1916905560025481517f29092d0e000000000000000000000000000000000000000000000000000000008152600160a060020a038681169482019490945291519216926329092d0e9260248084019382900301818387803b15801561050457600080fd5b505af1158015610518573d6000803e3d6000fd5b5050505050565b600354604080517f741332e1000000000000000000000000000000000000000000000000000000008152600481018490529051600092600160a060020a03169163741332e1916024808301926020929190829003018186803b15801561058457600080fd5b505afa158015610598573d6000803e3d6000fd5b505050506040513d60208110156105ae57600080fd5b505192915050565b600054600160a060020a031681565b600254604080517f96210c51000000000000000000000000000000000000000000000000000000008152600160a060020a038481166004830152915160009392909216916396210c5191602480820192602092909190829003018186803b15801561058457600080fd5b600054600160a060020a031633146106a857604080517f08c379a000000000000000000000000000000000000000000000000000000000815260206004820152600d60248201527f4e6f7420746865206f776e657200000000000000000000000000000000000000604482015290519081900360640190fd5b6000805473ffffffffffffffffffffffffffffffffffffffff1916600160a060020a0392909216919091179055565b600354600160a060020a031681565b33600090815260046020526040902054600160a060020a031615610755576040517f08c379a000000000000000000000000000000000000000000000000000000000815260040180806020018281038252602a815260200180615e25602a913960400191505060405180910390fd5b60008133604051610765906108a1565b918252600160a060020a03166020820152604080519182900301906000f080158015610795573d6000803e3d6000fd5b50336000908152600460208190526040808320805473ffffffffffffffffffffffffffffffffffffffff1916600160a060020a0386811691821790925560025483517fbc902ad2000000000000000000000000000000000000000000000000000000008152948501919091529151949550169263bc902ad29260248084019391929182900301818387803b15801561082c57600080fd5b505af1158015610840573d6000803e3d6000fd5b505060408051600160a060020a038516815290517f0b0376a109cbb578b709f85f6a7befcdac3ac1ab251c99ede87f30c9572ac4d39350908190036020019150a15050565b33600090815260046020526040902054600160a060020a031690565b615576806108af8339019056fe60806040523480156200001157600080fd5b506040516200557638038062005576833981810160405260408110156200003757600080fd5b50805160209091015160008054600160a060020a038316600160a060020a03199182161790915560028054909116331790556040513090620000799062000122565b600160a060020a03909116815260405190819003602001906000f080158015620000a7573d6000803e3d6000fd5b5060038054600160a060020a031916600160a060020a03929092169190911790556001829055604051620000db9062000130565b604051809103906000f080158015620000f8573d6000803e3d6000fd5b5060058054600160a060020a031916600160a060020a0392909216919091179055506200013e9050565b6107388062004a7983390190565b6103c580620051b183390190565b61492b806200014e6000396000f3fe6080604052600436106200011a5760003560e060020a9004806387e854d311620000a7578063a6103e351162000071578063a6103e351462000475578063a6f9dae1146200048d578063ba5bf3ed14620004c4578063c3c745ee146200053a578063eac977c41462000569576200011a565b806387e854d314620003ba5780638da5cb5b14620003fa57806396210c511462000412578063a06b2321146200045d576200011a565b8063410d59cc11620000e9578063410d59cc14620002e95780636bfb0d011462000353578063758db588146200036b57806383197ef014620003a2576200011a565b80630444eb4c146200011f57806306fdde0314620002735780633b7fdb73146200029d5780633ccfd60b14620002d1575b600080fd5b3480156200012c57600080fd5b5062000271600480360360a08110156200014557600080fd5b8135916020810135918101906060810160408201356401000000008111156200016d57600080fd5b8201836020820111156200018057600080fd5b80359060200191846001830284011164010000000083111715620001a357600080fd5b91908080601f0160208091040260200160405190810160405280939291908181526020018383808284376000920191909152509295949360208101935035915050640100000000811115620001f757600080fd5b8201836020820111156200020a57600080fd5b803590602001918460018302840111640100000000831117156200022d57600080fd5b91908080601f016020809104026020016040519081016040528093929190818152602001838380828437600092019190915250929550509135925062000665915050565b005b3480156200028057600080fd5b506200028b620008e9565b60408051918252519081900360200190f35b348015620002aa57600080fd5b50620002b5620008ef565b60408051600160a060020a039092168252519081900360200190f35b348015620002de57600080fd5b5062000271620008fe565b348015620002f657600080fd5b506200030162000981565b60408051602080825283518183015283519192839290830191858101910280838360005b838110156200033f57818101518382015260200162000325565b505050509050019250505060405180910390f35b3480156200036057600080fd5b506200028b62000ab5565b3480156200037857600080fd5b5062000271600480360360208110156200039157600080fd5b5035600160a060020a031662000b47565b348015620003af57600080fd5b506200027162000c1d565b348015620003c757600080fd5b506200027160048036036040811015620003e057600080fd5b508035600160a060020a0316906020013560ff1662000c73565b3480156200040757600080fd5b50620002b5620010aa565b3480156200041f57600080fd5b5062000449600480360360208110156200043857600080fd5b5035600160a060020a0316620010b9565b604080519115158252519081900360200190f35b3480156200046a57600080fd5b506200044962001158565b3480156200048257600080fd5b50620002b5620011f4565b3480156200049a57600080fd5b506200027160048036036020811015620004b357600080fd5b5035600160a060020a031662001203565b348015620004d157600080fd5b50620004f260048036036020811015620004ea57600080fd5b503562001284565b60408051971515885260ff9096166020880152600160a060020a0394851687870152929093166060860152608085015260a084019190915260c0830152519081900360e00190f35b62000271600480360360408110156200055257600080fd5b50600160a060020a038135169060200135620012e1565b3480156200057657600080fd5b5062000581620018f7565b60405180806020018060200180602001848103845287818151815260200191508051906020019060200280838360005b83811015620005cb578181015183820152602001620005b1565b50505050905001848103835286818151815260200191508051906020019060200280838360005b838110156200060c578181015183820152602001620005f2565b50505050905001848103825285818151815260200191508051906020019060200280838360005b838110156200064d57818101518382015260200162000633565b50505050905001965050505050505060405180910390f35b600054600160a060020a03163314620006b7576040805160e560020a62461bcd02815260206004820152600d602482015260008051602062004892833981519152604482015290519081900360640190fd5b600080546002546040518892600160a060020a039081169216908890889088908890620006e49062001a81565b8088815260200187600160a060020a0316600160a060020a0316815260200186600160a060020a0316600160a060020a031681526020018581526020018060200180602001848152602001838103835286818151815260200191508051906020019080838360005b83811015620007665781810151838201526020016200074c565b50505050905090810190601f168015620007945780820380516001836020036101000a031916815260200191505b50838103825285518152855160209182019187019080838360005b83811015620007c9578181015183820152602001620007af565b50505050905090810190601f168015620007f75780820380516001836020036101000a031916815260200191505b509950505050505050505050604051809103906000f08015801562000820573d6000803e3d6000fd5b50600354604080517fbc902ad2000000000000000000000000000000000000000000000000000000008152600160a060020a038085166004830152915193945091169163bc902ad29160248082019260009290919082900301818387803b1580156200088b57600080fd5b505af1158015620008a0573d6000803e3d6000fd5b505060408051600160a060020a038516815290517fc84c1949c25c3720439bdbb249aef7fe95085fe4af1820022b566cd94d6718489350908190036020019150a1505050505050565b60015481565b600554600160a060020a031681565b600054600160a060020a0316331462000950576040805160e560020a62461bcd02815260206004820152600d602482015260008051602062004892833981519152604482015290519081900360640190fd5b6040513390303180156108fc02916000818181858888f193505050501580156200097e573d6000803e3d6000fd5b50565b600354604080517f67e4ac2c0000000000000000000000000000000000000000000000000000000081529051606092600160a060020a0316916367e4ac2c916004808301926000929190829003018186803b158015620009e057600080fd5b505afa158015620009f5573d6000803e3d6000fd5b505050506040513d6000823e601f3d908101601f19168201604052602081101562000a1f57600080fd5b810190808051604051939291908464010000000082111562000a4057600080fd5b90830190602082018581111562000a5657600080fd5b825186602082028301116401000000008211171562000a7457600080fd5b82525081516020918201928201910280838360005b8381101562000aa357818101518382015260200162000a89565b50505050905001604052505050905090565b600354604080517fa87d942c0000000000000000000000000000000000000000000000000000000081529051600092600160a060020a03169163a87d942c916004808301926020929190829003018186803b15801562000b1457600080fd5b505afa15801562000b29573d6000803e3d6000fd5b505050506040513d602081101562000b4057600080fd5b5051905090565b600054600160a060020a0316331462000b99576040805160e560020a62461bcd02815260206004820152600d602482015260008051602062004892833981519152604482015290519081900360640190fd5b600354604080517f29092d0e000000000000000000000000000000000000000000000000000000008152600160a060020a038481166004830152915191909216916329092d0e91602480830192600092919082900301818387803b15801562000c0157600080fd5b505af115801562000c16573d6000803e3d6000fd5b5050505050565b600054600160a060020a0316331462000c6f576040805160e560020a62461bcd02815260206004820152600d602482015260008051602062004892833981519152604482015290519081900360640190fd5b6000ff5b600054600160a060020a0316331462000cc5576040805160e560020a62461bcd02815260206004820152600d602482015260008051602062004892833981519152604482015290519081900360640190fd5b6000439050600083600160a060020a0316636fcb6dc66040518163ffffffff1660e060020a02815260040160206040518083038186803b15801562000d0957600080fd5b505afa15801562000d1e573d6000803e3d6000fd5b505050506040513d602081101562000d3557600080fd5b5051600554604080517f2b036a5f000000000000000000000000000000000000000000000000000000008152600481018490529051929350600092600160a060020a0390921691632b036a5f91602480820192602092909190829003018186803b15801562000da357600080fd5b505afa15801562000db8573d6000803e3d6000fd5b505050506040513d602081101562000dcf57600080fd5b5051604080517fa7dae30000000000000000000000000000000000000000000000000000000000815260ff87166004820152602481018390529051919250600160a060020a0387169163a7dae3009160448082019260009290919082900301818387803b15801562000e4057600080fd5b505af115801562000e55573d6000803e3d6000fd5b5050505060046040518060e001604052806001151581526020018660ff16815260200130600160a060020a0316815260200187600160a060020a03168152602001858152602001848152602001838152509080600181540180825580915050906001820390600052602060002090600502016000909192909190915060008201518160000160006101000a81548160ff02191690831515021790555060208201518160000160016101000a81548160ff021916908360ff16021790555060408201518160000160026101000a815481600160a060020a030219169083600160a060020a0316021790555060608201518160010160006101000a815481600160a060020a030219169083600160a060020a031602179055506080820151816002015560a0820151816003015560c082015181600401555050507fce5325779efd8b3e540a11b501afe7ceae690c0e9ea80750ca714fce3cfa03e6858585306040518085600160a060020a0316600160a060020a031681526020018460ff1660ff16815260200183815260200182600160a060020a0316600160a060020a0316815260200194505050505060405180910390a1600554604080517fc087f6a000000000000000000000000000000000000000000000000000000000815260048101859052600160248201529051600160a060020a039092169163c087f6a0916044808201926020929091908290030181600087803b1580156200107557600080fd5b505af11580156200108a573d6000803e3d6000fd5b505050506040513d6020811015620010a157600080fd5b50505050505050565b600054600160a060020a031681565b600354604080517f96210c51000000000000000000000000000000000000000000000000000000008152600160a060020a038481166004830152915160009392909216916396210c5191602480820192602092909190829003018186803b1580156200112457600080fd5b505afa15801562001139573d6000803e3d6000fd5b505050506040513d60208110156200115057600080fd5b505192915050565b600254604080517f96210c510000000000000000000000000000000000000000000000000000000081523060048201529051600092600160a060020a03169182916396210c5191602480820192602092909190829003018186803b158015620011c057600080fd5b505afa158015620011d5573d6000803e3d6000fd5b505050506040513d6020811015620011ec57600080fd5b505191505090565b600254600160a060020a031681565b600054600160a060020a0316331462001255576040805160e560020a62461bcd02815260206004820152600d602482015260008051602062004892833981519152604482015290519081900360640190fd5b6000805473ffffffffffffffffffffffffffffffffffffffff1916600160a060020a0392909216919091179055565b600481815481106200129257fe5b60009182526020909120600590910201805460018201546002830154600384015460049094015460ff80851696506101008504169462010000909404600160a060020a03908116949316929087565b600054600160a060020a0316331462001333576040805160e560020a62461bcd02815260206004820152600d602482015260008051602062004892833981519152604482015290519081900360640190fd5b60008111620013775760405160e560020a62461bcd028152600401808060200182810382526021815260200180620048d66021913960400191505060405180910390fd5b348114620013ba5760405160e560020a62461bcd028152600401808060200182810382526024815260200180620048b26024913960400191505060405180910390fd5b6000829050600083600160a060020a03166343f575af6040518163ffffffff1660e060020a02815260040160206040518083038186803b158015620013fe57600080fd5b505afa15801562001413573d6000803e3d6000fd5b505050506040513d60208110156200142a57600080fd5b5051604080517f8ec3cc070000000000000000000000000000000000000000000000000000000081529051919250600091600160a060020a03871691638ec3cc07916004808301926020929190829003018186803b1580156200148c57600080fd5b505afa158015620014a1573d6000803e3d6000fd5b505050506040513d6020811015620014b857600080fd5b505190508381116200169557808403935084600160a060020a03166355a373d66040518163ffffffff1660e060020a02815260040160206040518083038186803b1580156200150657600080fd5b505afa1580156200151b573d6000803e3d6000fd5b505050506040513d60208110156200153257600080fd5b5051604080517f095ea7b3000000000000000000000000000000000000000000000000000000008152600160a060020a038881166004830152602482018690529151919092169163095ea7b39160448083019260209291908290030181600087803b158015620015a157600080fd5b505af1158015620015b6573d6000803e3d6000fd5b505050506040513d6020811015620015cd57600080fd5b5050604051600160a060020a0384169085156108fc029086906000818181858888f1935050505015801562001606573d6000803e3d6000fd5b50604080517f4e07880300000000000000000000000000000000000000000000000000000000815230600482015260248101869052604481018490529051600160a060020a03871691634e07880391606480830192600092919082900301818387803b1580156200167657600080fd5b505af11580156200168b573d6000803e3d6000fd5b50505050620018a1565b838103905084600160a060020a0316631ec7e3456040518163ffffffff1660e060020a02815260040160206040518083038186803b158015620016d757600080fd5b505afa158015620016ec573d6000803e3d6000fd5b505050506040513d60208110156200170357600080fd5b505181816200170e57fe5b04600101915084600160a060020a03166355a373d66040518163ffffffff1660e060020a02815260040160206040518083038186803b1580156200175157600080fd5b505afa15801562001766573d6000803e3d6000fd5b505050506040513d60208110156200177d57600080fd5b5051604080517f095ea7b3000000000000000000000000000000000000000000000000000000008152600160a060020a038881166004830152602482018690529151919092169163095ea7b39160448083019260209291908290030181600087803b158015620017ec57600080fd5b505af115801562001801573d6000803e3d6000fd5b505050506040513d60208110156200181857600080fd5b5050604080517f4e078803000000000000000000000000000000000000000000000000000000008152306004820152600060248201819052604482018590529151600160a060020a03881692634e078803926064808201939182900301818387803b1580156200188757600080fd5b505af11580156200189c573d6000803e3d6000fd5b505050505b60408051308152600160a060020a03871660208201528082018690526060810184905290517fcddb72793877e635d832b0c374a64b2611fcd49b1582997fda0774766fc0e2069181900360800190a15050505050565b60045460408051828152602080840282010190915260609182918291908180156200192c578160200160208202803883390190505b509350806040519080825280602002602001820160405280156200195a578160200160208202803883390190505b5092508060405190808252806020026020018201604052801562001988578160200160208202803883390190505b50915060005b8181101562001a7a5760048181548110620019a557fe5b906000526020600020906005020160000160019054906101000a900460ff1660ff16858281518110620019d457fe5b60200260200101818152505060048181548110620019ee57fe5b90600052602060002090600502016002015484828151811062001a0d57fe5b6020026020010181815250506004818154811062001a2757fe5b906000526020600020906005020160010160009054906101000a9004600160a060020a031683828151811062001a5957fe5b600160a060020a03909216602092830291909101909101526001016200198e565b5050909192565b612e028062001a908339019056fe60806040523480156200001157600080fd5b5060405162002e0238038062002e02833981810160405260e08110156200003757600080fd5b81516020830151604080850151606086015160808701805193519597949692959194919392820192846401000000008211156200007357600080fd5b9083019060208201858111156200008957600080fd5b8251640100000000811182820188101715620000a457600080fd5b82525081516020918201929091019080838360005b83811015620000d3578181015183820152602001620000b9565b50505050905090810190601f168015620001015780820380516001836020036101000a031916815260200191505b50604052602001805160405193929190846401000000008211156200012557600080fd5b9083019060208201858111156200013b57600080fd5b82516401000000008111828201881017156200015657600080fd5b82525081516020918201929091019080838360005b83811015620001855781810151838201526020016200016b565b50505050905090810190601f168015620001b35780820380516001836020036101000a031916815260200191505b50604081815260209283015160008054600160a060020a031916600160a060020a038d8116919091179091557f741332e1000000000000000000000000000000000000000000000000000000008452600484018a905291519095508994509084169263741332e19260248082019391829003018186803b1580156200023757600080fd5b505afa1580156200024c573d6000803e3d6000fd5b505050506040513d60208110156200026357600080fd5b5051620002d157604080517f08c379a000000000000000000000000000000000000000000000000000000000815260206004820152601c60248201527f536b696c6c206465636c6172656420646f65736e277420657869737400000000604482015290519081900360640190fd5b600082116200032c576040517f08c379a000000000000000000000000000000000000000000000000000000000815260040180806020018281038252602281526020018062002de06022913960400191505060405180910390fd5b60048054600160a060020a031916600160a060020a0388161790556003889055600985905560405184908490620f424090620003689062000494565b60408101829052606080825284519082015283518190602080830191608084019188019080838360005b83811015620003ac57818101518382015260200162000392565b50505050905090810190601f168015620003da5780820380516001836020036101000a031916815260200191505b50838103825285518152855160209182019187019080838360005b838110156200040f578181015183820152602001620003f5565b50505050905090810190601f1680156200043d5780820380516001836020036101000a031916815260200191505b5095505050505050604051809103906000f08015801562000462573d6000803e3d6000fd5b50600a8054600160a060020a031916600160a060020a039290921691909117905550600b5550620004a2945050505050565b610adf806200230183390190565b611e4f80620004b26000396000f3fe6080604052600436106101bb5760003560e060020a900480638ec3cc07116100f0578063b07d133e1161008e578063eac977c411610068578063eac977c4146105cc578063f1f0c2c614610704578063f21459711461072e578063f62b6f0e14610761576101bb565b8063b07d133e14610536578063c34fe31c1461056f578063c5d46dfc14610599576101bb565b8063a4f97272116100ca578063a4f9727214610491578063a6103e35146104bb578063a6f9dae1146104d0578063a7dae30014610503576101bb565b80638ec3cc07146103fc578063930de4c514610411578063a3bf5b9a1461045e576101bb565b806355a373d61161015d5780637c3102d8116101375780637c3102d81461037557806383197ef0146103a857806388c86d1d146103bd5780638da5cb5b146103e7576101bb565b806355a373d6146102e15780636fcb6dc61461031257806377b761ba14610327576101bb565b80632d8e3278116101995780632d8e32781461020e5780633791dc6a1461024157806343f575af1461028d5780634e078803146102a2576101bb565b806306fdde03146101bd5780631ec7e345146101e457806324864081146101f9575b005b3480156101c957600080fd5b506101d2610794565b60408051918252519081900360200190f35b3480156101f057600080fd5b506101d261079a565b34801561020557600080fd5b506101d26107a0565b34801561021a57600080fd5b506101bb6004803603602081101561023157600080fd5b5035600160a060020a03166107a6565b34801561024d57600080fd5b506102746004803603602081101561026457600080fd5b5035600160a060020a0316610a52565b6040805192835290151560208301528051918290030190f35b34801561029957600080fd5b506101d2610a82565b3480156102ae57600080fd5b506101bb600480360360608110156102c557600080fd5b50600160a060020a038135169060208101359060400135610b17565b3480156102ed57600080fd5b506102f6610cf4565b60408051600160a060020a039092168252519081900360200190f35b34801561031e57600080fd5b506101d2610d03565b34801561033357600080fd5b5061035a6004803603602081101561034a57600080fd5b5035600160a060020a0316610d09565b60408051921515835260208301919091528051918290030190f35b34801561038157600080fd5b506101d26004803603602081101561039857600080fd5b5035600160a060020a0316610d28565b3480156103b457600080fd5b506101bb610d9c565b3480156103c957600080fd5b506101d2600480360360208110156103e057600080fd5b5035610df0565b3480156103f357600080fd5b506102f6610e0e565b34801561040857600080fd5b506101d2610e1d565b34801561041d57600080fd5b5061044a6004803603604081101561043457600080fd5b50600160a060020a038135169060200135610eca565b604080519115158252519081900360200190f35b34801561046a57600080fd5b506101bb6004803603602081101561048157600080fd5b5035600160a060020a0316610f38565b34801561049d57600080fd5b506101d2600480360360208110156104b457600080fd5b503561100f565b3480156104c757600080fd5b506102f661101c565b3480156104dc57600080fd5b506101bb600480360360208110156104f357600080fd5b5035600160a060020a031661102b565b34801561050f57600080fd5b506101bb6004803603604081101561052657600080fd5b5060ff81351690602001356110aa565b34801561054257600080fd5b506101bb6004803603604081101561055957600080fd5b50600160a060020a0381351690602001356112fd565b34801561057b57600080fd5b506101d26004803603602081101561059257600080fd5b50356115ab565b3480156105a557600080fd5b506101d2600480360360208110156105bc57600080fd5b5035600160a060020a03166115b8565b3480156105d857600080fd5b506105e1611700565b6040518080602001806020018060200180602001858103855289818151815260200191508051906020019060200280838360005b8381101561062d578181015183820152602001610615565b50505050905001858103845288818151815260200191508051906020019060200280838360005b8381101561066c578181015183820152602001610654565b50505050905001858103835287818151815260200191508051906020019060200280838360005b838110156106ab578181015183820152602001610693565b50505050905001858103825286818151815260200191508051906020019060200280838360005b838110156106ea5781810151838201526020016106d2565b505050509050019850505050505050505060405180910390f35b34801561071057600080fd5b506102f66004803603602081101561072757600080fd5b5035611862565b34801561073a57600080fd5b5061035a6004803603602081101561075157600080fd5b5035600160a060020a0316611889565b34801561076d57600080fd5b506101bb6004803603602081101561078457600080fd5b5035600160a060020a03166118a8565b60035481565b600b5481565b60055490565b600054600160a060020a031633146107f6576040805160e560020a62461bcd02815260206004820152600d6024820152600080516020611cfc833981519152604482015290519081900360640190fd5b600081905080600160a060020a031663a06b23216040518163ffffffff1660e060020a02815260040160206040518083038186803b15801561083757600080fd5b505afa15801561084b573d6000803e3d6000fd5b505050506040513d602081101561086157600080fd5b50516108a15760405160e560020a62461bcd028152600401808060200182810382526034815260200180611d1c6034913960400191505060405180910390fd5b600460009054906101000a9004600160a060020a0316600160a060020a031681600160a060020a031663a6103e356040518163ffffffff1660e060020a02815260040160206040518083038186803b1580156108fc57600080fd5b505afa158015610910573d6000803e3d6000fd5b505050506040513d602081101561092657600080fd5b5051600160a060020a0316146109705760405160e560020a62461bcd02815260040180806020018281038252602f815260200180611d50602f913960400191505060405180910390fd5b600054604080517f8da5cb5b0000000000000000000000000000000000000000000000000000000081529051600160a060020a0392831692841691638da5cb5b916004808301926020929190829003018186803b1580156109d057600080fd5b505afa1580156109e4573d6000803e3d6000fd5b505050506040513d60208110156109fa57600080fd5b5051600160a060020a03161415610a455760405160e560020a62461bcd028152600401808060200182810382526027815260200180611d7f6027913960400191505060405180910390fd5b610a4e8261197e565b5050565b600160a060020a03166000908152600160208190526040909120908101549054620186a09091019160ff90911690565b600a54604080517f70a082310000000000000000000000000000000000000000000000000000000081523360048201529051600092600160a060020a0316916370a08231916024808301926020929190829003018186803b158015610ae657600080fd5b505afa158015610afa573d6000803e3d6000fd5b505050506040513d6020811015610b1057600080fd5b5051905090565b6000839050610b2c81600b5484028501610eca565b610b6a5760405160e560020a62461bcd028152600401808060200182810382526028815260200180611df36028913960400191505060405180910390fd5b610b73816118a8565b6040805180820182526001808252436020808401918252600160a060020a038616600090815290839052939093209151825460ff191690151517825591519101558215610bf95760008054604051600160a060020a0390911691829186156108fc0291879190818181858888f19350505050158015610bf6573d6000803e3d6000fd5b50505b8115610c9f57600a54604080517f23b872dd000000000000000000000000000000000000000000000000000000008152336004820152306024820152604481018590529051600160a060020a03909216916323b872dd916064808201926020929091908290030181600087803b158015610c7257600080fd5b505af1158015610c86573d6000803e3d6000fd5b505050506040513d6020811015610c9c57600080fd5b50505b60408051308152600160a060020a03861660208201528082018590526060810184905290517f7663c1b175df28255c6f251b98ef25d213712d232d2ef6891e6b32c3d085a39c9181900360800190a150505050565b600a54600160a060020a031681565b60095481565b6002602052600090815260409020805460019091015460ff9091169082565b6000610d32611cb9565b50600160a060020a0382166000908152600160208181526040928390208351808501909452805460ff16151580855292015490830152610d76576001915050610d97565b43620186a08260200151011015610d91576002915050610d97565b60009150505b919050565b600054600160a060020a03163314610dec576040805160e560020a62461bcd02815260206004820152600d6024820152600080516020611cfc833981519152604482015290519081900360640190fd5b6000ff5b60068181548110610dfd57fe5b600091825260209091200154905081565b600054600160a060020a031681565b600b54600a54604080517f70a082310000000000000000000000000000000000000000000000000000000081523360048201529051600093610ec5939092600160a060020a03909116916370a0823191602480820192602092909190829003018186803b158015610e8d57600080fd5b505afa158015610ea1573d6000803e3d6000fd5b505050506040513d6020811015610eb757600080fd5b50519063ffffffff611a9716565b905090565b6000610ed4611cb9565b50600160a060020a0383166000908152600260209081526040918290208251808401909352805460ff16151583526001015490820181905283148015610f1d5750805115156001145b15610f2c576001915050610f32565b60009150505b92915050565b33600160a060020a0382161480610f595750600054600160a060020a031633145b610f975760405160e560020a62461bcd02815260040180806020018281038252602b815260200180611cd1602b913960400191505060405180910390fd5b60408051808201825260008082526020808301828152600160a060020a0386168084526001808452938690209451855460ff191690151517855590519390920192909255825190815291517f3541f93cbae8c4be65491b824efe1570976e740b18c6aa441db5291f4de4c9219281900390910190a150565b60088181548110610dfd57fe5b600454600160a060020a031681565b600054600160a060020a0316331461107b576040805160e560020a62461bcd02815260206004820152600d6024820152600080516020611cfc833981519152604482015290519081900360640190fd5b6000805473ffffffffffffffffffffffffffffffffffffffff1916600160a060020a0392909216919091179055565b3380436110b682610d28565b1561110b576040805160e560020a62461bcd02815260206004820152601f60248201527f4e6f207065726d697373696f6e20746f20726174652074686973204974656d00604482015290519081900360640190fd5b60018560ff16101580156111235750600a8560ff1611155b611177576040805160e560020a62461bcd02815260206004820152601260248201527f53636f7265206f7574206f66207363616c650000000000000000000000000000604482015290519081900360640190fd5b61118083610f38565b600580546001808201835560ff88167f036b6384b5eca791c62761152d0c79bb0604c104a5fb6f4eb0703f3154bb3db0909201919091556006805480830182557ff652222313e28459528d920b65115c16c04f3efc82aaedc97be59f3f377c0d3f01849055600780548084019091557fa66cc928b5edb82af9bd49922954155ab7b0942694bea4ce44661d9a8736c68801805473ffffffffffffffffffffffffffffffffffffffff1916600160a060020a0387161790556008805492830181556000527ff3f7a9fe364faab93b216da50a3214154f22a0a2b415b23a84c8169e8b636ee39091018690555490541461127457fe5b6007546006541461128157fe5b6008546007541461128e57fe5b831561129e5761129e8385611afa565b6040805130815260ff87166020820152808201839052600160a060020a03841660608201526080810186905290517f9527e4448f4f31a7f55bfa1d2320038a4163c477398e810b0d0e0a2f3c077d819181900360a00190a15050505050565b600054600160a060020a0316331461134d576040805160e560020a62461bcd02815260206004820152600d6024820152600080516020611cfc833981519152604482015290519081900360640190fd5b600082905080600160a060020a031663a06b23216040518163ffffffff1660e060020a02815260040160206040518083038186803b15801561138e57600080fd5b505afa1580156113a2573d6000803e3d6000fd5b505050506040513d60208110156113b857600080fd5b50516113f85760405160e560020a62461bcd028152600401808060200182810382526034815260200180611d1c6034913960400191505060405180910390fd5b600460009054906101000a9004600160a060020a0316600160a060020a031681600160a060020a031663a6103e356040518163ffffffff1660e060020a02815260040160206040518083038186803b15801561145357600080fd5b505afa158015611467573d6000803e3d6000fd5b505050506040513d602081101561147d57600080fd5b5051600160a060020a0316146114c75760405160e560020a62461bcd02815260040180806020018281038252602f815260200180611d50602f913960400191505060405180910390fd5b600054604080517f8da5cb5b0000000000000000000000000000000000000000000000000000000081529051600160a060020a0392831692841691638da5cb5b916004808301926020929190829003018186803b15801561152757600080fd5b505afa15801561153b573d6000803e3d6000fd5b505050506040513d602081101561155157600080fd5b5051600160a060020a0316141561159c5760405160e560020a62461bcd028152600401808060200182810382526027815260200180611d7f6027913960400191505060405180910390fd5b6115a68383611b99565b505050565b60058181548110610dfd57fe5b600081600160a060020a031663337bf6746005600660086040518463ffffffff1660e060020a02815260040180806020018060200180602001848103845287818154815260200191508054801561162e57602002820191906000526020600020905b81548152602001906001019080831161161a575b5050848103835286818154815260200191508054801561166d57602002820191906000526020600020905b815481526020019060010190808311611659575b505084810382528581815481526020019150805480156116ac57602002820191906000526020600020905b815481526020019060010190808311611698575b5050965050505050505060206040518083038186803b1580156116ce57600080fd5b505afa1580156116e2573d6000803e3d6000fd5b505050506040513d60208110156116f857600080fd5b505192915050565b606080606080600580548060200260200160405190810160405280929190818152602001828054801561175257602002820191906000526020600020905b81548152602001906001019080831161173e575b5050505050935060068054806020026020016040519081016040528092919081815260200182805480156117a557602002820191906000526020600020905b815481526020019060010190808311611791575b50505050509250600780548060200260200160405190810160405280929190818152602001828054801561180257602002820191906000526020600020905b8154600160a060020a031681526001909101906020018083116117e4575b50505050509150600880548060200260200160405190810160405280929190818152602001828054801561185557602002820191906000526020600020905b815481526020019060010190808311611841575b5050505050905090919293565b6007818154811061186f57fe5b600091825260209091200154600160a060020a0316905081565b6001602081905260009182526040909120805491015460ff9091169082565b33600160a060020a03821614806118c95750600054600160a060020a031633145b6119075760405160e560020a62461bcd02815260040180806020018281038252602b815260200180611cd1602b913960400191505060405180910390fd5b60408051808201825260008082526020808301828152600160a060020a03861680845260028352928590209351845460ff191690151517845551600190930192909255825190815291517f963eaa1310a95b879edd6190c81702bcbbfa814698155ebb751b2d4e85cd2e699281900390910190a150565b600054600160a060020a031633146119ce576040805160e560020a62461bcd02815260206004820152600d6024820152600080516020611cfc833981519152604482015290519081900360640190fd5b600054600160a060020a0382811691161415611a1e5760405160e560020a62461bcd02815260040180806020018281038252602c815260200180611dc7602c913960400191505060405180910390fd5b6040805180820182526001808252436020808401918252600160a060020a03861660008181528483528690209451855460ff191690151517855591519390920192909255825191825291517fceebffeea71a081da3958f44bb5272c02bc06e6a287e49bec90d854491c87134929181900390910190a150565b600082611aa657506000610f32565b82820282848281611ab357fe5b0414611af35760405160e560020a62461bcd028152600401808060200182810382526021815260200180611da66021913960400191505060405180910390fd5b9392505050565b600a54604080517fa9059cbb000000000000000000000000000000000000000000000000000000008152600160a060020a038581166004830152602482018590529151919092169163a9059cbb9160448083019260209291908290030181600087803b158015611b6957600080fd5b505af1158015611b7d573d6000803e3d6000fd5b505050506040513d6020811015611b9357600080fd5b50505050565b600054600160a060020a03163314611be9576040805160e560020a62461bcd02815260206004820152600d6024820152600080516020611cfc833981519152604482015290519081900360640190fd5b600054600160a060020a0383811691161415611c395760405160e560020a62461bcd02815260040180806020018281038252602c815260200180611dc7602c913960400191505060405180910390fd5b60408051808201825260018082526020808301858152600160a060020a0387166000818152600284528690209451855460ff191690151517855590519390920192909255825190815290810183905281517f7e9a3ca048c9f71ad939adc229e657127468a8707ca72a9d69cab142e5176bd7929181900390910190a15050565b60408051808201909152600080825260208201529056fe596f752063616e6e6f74207265766f6b65207065726d697373696f6e20746f206f746865722075736572734e6f7420746865206f776e657200000000000000000000000000000000000000526174696e672063616e20626520646f6e65206f6e6c792062792072656769737465726564205573657220636f6e747261637473557365722073686f756c642072617465206f6e6c79204974656d732062656c6f6e696e6720746f206974732052534643616e6e6f74206772616e74207065726d697373696f6e7320746f205573657220697473656c66536166654d6174683a206d756c7469706c69636174696f6e206f766572666c6f77546865206f776e65722063616e6e6f74206772616e74207065726d697373696f6e20746f2068696d73656c6653756d206f6620616d6f756e7420616e6420746f6b656e7320646f6573206e6f74206d6174636820a265627a7a72315820a281d94dffcbbcda4e3ca1741ab4e5e7313f2b9f462700cd87822d8b182b99a764736f6c634300050d0032608060405234801561001057600080fd5b50604051610adf380380610adf8339818101604052606081101561003357600080fd5b810190808051604051939291908464010000000082111561005357600080fd5b90830190602082018581111561006857600080fd5b825164010000000081118282018810171561008257600080fd5b82525081516020918201929091019080838360005b838110156100af578181015183820152602001610097565b50505050905090810190601f1680156100dc5780820380516001836020036101000a031916815260200191505b50604052602001805160405193929190846401000000008211156100ff57600080fd5b90830190602082018581111561011457600080fd5b825164010000000081118282018810171561012e57600080fd5b82525081516020918201929091019080838360005b8381101561015b578181015183820152602001610143565b50505050905090810190601f1680156101885780820380516001836020036101000a031916815260200191505b5060405260209081015185519093506101a792506000918601906101d9565b5081516101bb9060019060208501906101d9565b50336000908152600360205260409020819055600255506102749050565b828054600181600116156101000203166002900490600052602060002090601f016020900481019282601f1061021a57805160ff1916838001178555610247565b82800160010185558215610247579182015b8281111561024757825182559160200191906001019061022c565b50610253929150610257565b5090565b61027191905b80821115610253576000815560010161025d565b90565b61085c806102836000396000f3fe608060405234801561001057600080fd5b50600436106100c6576000357c0100000000000000000000000000000000000000000000000000000000900480636ebcf6071161008e5780636ebcf607146101e057806370a082311461020657806395d89b411461022c578063a9059cbb14610234578063dd336c1214610260578063dd62ed3e1461028e576100c6565b806306fdde03146100cb578063095ea7b31461014857806318160ddd1461018857806323b872dd146101a25780633eaaf86b146101d8575b600080fd5b6100d36102bc565b6040805160208082528351818301528351919283929083019185019080838360005b8381101561010d5781810151838201526020016100f5565b50505050905090810190601f16801561013a5780820380516001836020036101000a031916815260200191505b509250505060405180910390f35b6101746004803603604081101561015e57600080fd5b50600160a060020a03813516906020013561034a565b604080519115158252519081900360200190f35b6101906103b0565b60408051918252519081900360200190f35b610174600480360360608110156101b857600080fd5b50600160a060020a038135811691602081013590911690604001356103b6565b610190610518565b610190600480360360208110156101f657600080fd5b5035600160a060020a031661051e565b6101906004803603602081101561021c57600080fd5b5035600160a060020a0316610530565b6100d361054b565b6101746004803603604081101561024a57600080fd5b50600160a060020a0381351690602001356105a5565b6101906004803603604081101561027657600080fd5b50600160a060020a0381358116916020013516610671565b610190600480360360408110156102a457600080fd5b50600160a060020a038135811691602001351661068e565b6000805460408051602060026001851615610100026000190190941693909304601f810184900484028201840190925281815292918301828280156103425780601f1061031757610100808354040283529160200191610342565b820191906000526020600020905b81548152906001019060200180831161032557829003601f168201915b505050505081565b336000818152600460209081526040808320600160a060020a038716808552908352818420869055815186815291519394909390927f8c5be1e5ebec7d5bd14f71427d1e84f3dd0314c0f7b2291e5b200ac8c7c3b925928290030190a350600192915050565b60025490565b600160a060020a0383166000908152600360205260408120548211156103db57600080fd5b600160a060020a038416600090815260046020908152604080832033845290915290205482111561040b57600080fd5b600160a060020a038416600090815260036020526040902054610434908363ffffffff6106b916565b600160a060020a038086166000908152600360205260408082209390935590851681522054610469908363ffffffff61070216565b600160a060020a0380851660009081526003602090815260408083209490945591871681526004825282812033825290915220546104ad908363ffffffff6106b916565b600160a060020a03808616600081815260046020908152604080832033845282529182902094909455805186815290519287169391927fddf252ad1be2c89b69c2b068fc378daa952ba7f163c4a11628f55a4df523b3ef929181900390910190a35060019392505050565b60025481565b60036020526000908152604090205481565b600160a060020a031660009081526003602052604090205490565b60018054604080516020600284861615610100026000190190941693909304601f810184900484028201840190925281815292918301828280156103425780601f1061031757610100808354040283529160200191610342565b336000908152600360205260408120548211156105c157600080fd5b336000908152600360205260409020546105e1908363ffffffff6106b916565b3360009081526003602052604080822092909255600160a060020a03851681522054610613908363ffffffff61070216565b600160a060020a0384166000818152600360209081526040918290209390935580518581529051919233927fddf252ad1be2c89b69c2b068fc378daa952ba7f163c4a11628f55a4df523b3ef9281900390910190a350600192915050565b600460209081526000928352604080842090915290825290205481565b600160a060020a03918216600090815260046020908152604080832093909416825291909152205490565b60006106fb83836040518060400160405280601e81526020017f536166654d6174683a207375627472616374696f6e206f766572666c6f770000815250610776565b9392505050565b6000828201838110156106fb57604080517f08c379a000000000000000000000000000000000000000000000000000000000815260206004820152601b60248201527f536166654d6174683a206164646974696f6e206f766572666c6f770000000000604482015290519081900360640190fd5b6000818484111561081f576040517f08c379a00000000000000000000000000000000000000000000000000000000081526004018080602001828103825283818151815260200191508051906020019080838360005b838110156107e45781810151838201526020016107cc565b50505050905090810190601f1680156108115780820380516001836020036101000a031916815260200191505b509250505060405180910390fd5b50505090039056fea265627a7a72315820c3088b06ea1a9ff2a90a6879aa4bcb1dec4f4b32949b488f2d051de16f38865264736f6c634300050d0032546f6b656e2076616c7565206d7573742062652067726561746572207468656e20304e6f7420746865206f776e65720000000000000000000000000000000000000054686520616d6f756e7420746f2062652073656e7420646f6573206e6f74206d6174636854686520616d6f756e74206d7573742062652067726561746572207468656e2030a265627a7a72315820791e29d1d22b1901471c4704b94b0c037ad3d39f54997d6c6650845859e86dbe64736f6c634300050d0032608060405234801561001057600080fd5b506040516107383803806107388339818101604052602081101561003357600080fd5b505160028054600160a060020a031916600160a060020a039092169190911790556106d5806100636000396000f3fe608060405234801561001057600080fd5b50600436106100a5576000357c0100000000000000000000000000000000000000000000000000000000900480639777f31e116100785780639777f31e14610188578063a6f9dae1146101a5578063a87d942c146101cb578063bc902ad2146101e5576100a5565b806329092d0e146100aa57806367e4ac2c146100d25780638da5cb5b1461012a57806396210c511461014e575b600080fd5b6100d0600480360360208110156100c057600080fd5b5035600160a060020a031661020b565b005b6100da610279565b60408051602080825283518183015283519192839290830191858101910280838360005b838110156101165781810151838201526020016100fe565b505050509050019250505060405180910390f35b6101326102dc565b60408051600160a060020a039092168252519081900360200190f35b6101746004803603602081101561016457600080fd5b5035600160a060020a03166102eb565b604080519115158252519081900360200190f35b6101326004803603602081101561019e57600080fd5b5035610346565b6100d0600480360360208110156101bb57600080fd5b5035600160a060020a031661037e565b6101d361040f565b60408051918252519081900360200190f35b6100d0600480360360208110156101fb57600080fd5b5035600160a060020a0316610415565b600254600160a060020a0316331461026d576040805160e560020a62461bcd02815260206004820152600d60248201527f4e6f7420746865206f776e657200000000000000000000000000000000000000604482015290519081900360640190fd5b61027681610480565b50565b606060018054806020026020016040519081016040528092919081815260200182805480156102d157602002820191906000526020600020905b8154600160a060020a031681526001909101906020018083116102b3575b505050505090505b90565b600254600160a060020a031681565b6001546000906102fd57506000610341565b600160a060020a038216600081815260208190526040902054600180549192918390811061032757fe5b600091825260209091200154600160a060020a0316149150505b919050565b6000600154821061035657600080fd5b6001828154811061036357fe5b600091825260209091200154600160a060020a031692915050565b600254600160a060020a031633146103e0576040805160e560020a62461bcd02815260206004820152600d60248201527f4e6f7420746865206f776e657200000000000000000000000000000000000000604482015290519081900360640190fd5b6002805473ffffffffffffffffffffffffffffffffffffffff1916600160a060020a0392909216919091179055565b60015490565b600254600160a060020a03163314610477576040805160e560020a62461bcd02815260206004820152600d60248201527f4e6f7420746865206f776e657200000000000000000000000000000000000000604482015290519081900360640190fd5b61027681610592565b610489816102eb565b6104dd576040805160e560020a62461bcd02815260206004820152601260248201527f41646472657373206e6f742073746f7265640000000000000000000000000000604482015290519081900360640190fd5b600160a060020a03811660009081526020819052604081205460018054919291600019810190811061050b57fe5b60009182526020909120015460018054600160a060020a03909216925082918490811061053457fe5b6000918252602080832091909101805473ffffffffffffffffffffffffffffffffffffffff1916600160a060020a0394851617905591831681529081905260409020829055600180549061058c906000198301610659565b50505050565b61059b816102eb565b156105f0576040805160e560020a62461bcd02815260206004820152601660248201527f4164647265737320616c72656164792073746f72656400000000000000000000604482015290519081900360640190fd5b600180548082019091557fb10e2d527612073b26eecdfd717e6a320cf44b4afac2b0732d9fcbe2b7fa0cf681018054600160a060020a0390931673ffffffffffffffffffffffffffffffffffffffff199093168317905560009182526020829052604090912055565b81548183558181111561067d5760008381526020902061067d918101908301610682565b505050565b6102d991905b8082111561069c5760008155600101610688565b509056fea265627a7a7231582060282b68ef6032799657dac7e947cbd0ac6da9d14abe13ad1cc8458735c2b0b064736f6c634300050d0032608060405234801561001057600080fd5b506103a5806100206000396000f3fe608060405234801561001057600080fd5b506004361061009a576000357c010000000000000000000000000000000000000000000000000000000090048063c087f6a011610078578063c087f6a014610108578063dcf59f931461013f578063e3c76c9b14610147578063ee3dadbd146101645761009a565b80630cb6aaf11461009f5780632b036a5f146100ce5780639b055f90146100eb575b600080fd5b6100bc600480360360208110156100b557600080fd5b5035610181565b60408051918252519081900360200190f35b6100bc600480360360208110156100e457600080fd5b503561019f565b6100bc6004803603602081101561010157600080fd5b50356101b1565b61012b6004803603604081101561011e57600080fd5b50803590602001356101e4565b604080519115158252519081900360200190f35b6100bc6102bc565b6100bc6004803603602081101561015d57600080fd5b50356102c2565b6100bc6004803603602081101561017a57600080fd5b50356102e3565b6001818154811061018e57fe5b600091825260209091200154905081565b60009081526020819052604090205490565b6000806000600184815481106101c357fe5b90600052602060002001548152602001908152602001600020549050919050565b60008281526020819052604081205415158061023f57600180548082019091557fb10e2d527612073b26eecdfd717e6a320cf44b4afac2b0732d9fcbe2b7fa0cf601849055600084815260208190526040902083905561026e565b60008481526020819052604090205461025e908463ffffffff6102f516565b6000858152602081905260409020555b600084815260208181526040918290205482518781529182015281517fc66573feb4118f091c9f7c5c338d6c8bcbb774da43edabb8cb1d414c1d90d358929181900390910190a19392505050565b60015490565b6000600182815481106102d157fe5b90600052602060002001549050919050565b60006020819052908152604090205481565b60008282018381101561036957604080517f08c379a000000000000000000000000000000000000000000000000000000000815260206004820152601b60248201527f536166654d6174683a206164646974696f6e206f766572666c6f770000000000604482015290519081900360640190fd5b939250505056fea265627a7a723158202132b8a1882bcb0d6645f3fd9c9ba37c7a7ec9d2f3915bdf2284b02758b4586764736f6c634300050d00325468697320616464726573732068617320616c7265616479206120557365722072656769737465726564596f752063616e6e6f742072656d6f7665206f7468657227732075736572277320636f6e747261637473a265627a7a72315820d31152a2e5815a22b69adc9307f34038c7330630f86199acea9580d474d9aacf64736f6c634300050d0032608060405234801561001057600080fd5b506040516104ab3803806104ab8339818101604052602081101561003357600080fd5b505160008054600160a060020a03909216600160a060020a0319909216919091179055610446806100656000396000f3fe608060405234801561001057600080fd5b5060043610610073577c010000000000000000000000000000000000000000000000000000000060003504630e097de781146100785780632b105663146100b157806340393cff146101095780638da5cb5b14610137578063a6f9dae11461013f575b600080fd5b6100956004803603602081101561008e57600080fd5b5035610165565b60408051600160a060020a039092168252519081900360200190f35b6100b96101ff565b60408051602080825283518183015283519192839290830191858101910280838360005b838110156100f55781810151838201526020016100dd565b505050509050019250505060405180910390f35b6101356004803603604081101561011f57600080fd5b50600160a060020a038135169060200135610257565b005b61009561035a565b6101356004803603602081101561015557600080fd5b5035600160a060020a0316610369565b600060015482106101d757604080517f08c379a000000000000000000000000000000000000000000000000000000000815260206004820152601660248201527f496e76616c69642046756e6374696f6e20696e64657800000000000000000000604482015290519081900360640190fd5b600182815481106101e457fe5b600091825260209091200154600160a060020a031692915050565b6060600280548060200260200160405190810160405280929190818152602001828054801561024d57602002820191906000526020600020905b815481526020019060010190808311610239575b5050505050905090565b600054600160a060020a031633146102d057604080517f08c379a000000000000000000000000000000000000000000000000000000000815260206004820152600d60248201527f4e6f7420746865206f776e657200000000000000000000000000000000000000604482015290519081900360640190fd5b6001805480820182557fb10e2d527612073b26eecdfd717e6a320cf44b4afac2b0732d9fcbe2b7fa0cf601805473ffffffffffffffffffffffffffffffffffffffff1916600160a060020a0394909416939093179092556002805492830181556000527f405787fa12a823e0f2b7631cc41b3ba8828b3321ca811111fa75cd3aa3bb5ace90910155565b600054600160a060020a031681565b600054600160a060020a031633146103e257604080517f08c379a000000000000000000000000000000000000000000000000000000000815260206004820152600d60248201527f4e6f7420746865206f776e657200000000000000000000000000000000000000604482015290519081900360640190fd5b6000805473ffffffffffffffffffffffffffffffffffffffff1916600160a060020a039290921691909117905556fea265627a7a72315820445b1db695f0e84bf87aab9c4cd19ce15de31311678d05b2feb35d9f2c59334464736f6c634300050d0032608060405234801561001057600080fd5b506040516107383803806107388339818101604052602081101561003357600080fd5b505160028054600160a060020a031916600160a060020a039092169190911790556106d5806100636000396000f3fe608060405234801561001057600080fd5b50600436106100a5576000357c0100000000000000000000000000000000000000000000000000000000900480639777f31e116100785780639777f31e14610188578063a6f9dae1146101a5578063a87d942c146101cb578063bc902ad2146101e5576100a5565b806329092d0e146100aa57806367e4ac2c146100d25780638da5cb5b1461012a57806396210c511461014e575b600080fd5b6100d0600480360360208110156100c057600080fd5b5035600160a060020a031661020b565b005b6100da610279565b60408051602080825283518183015283519192839290830191858101910280838360005b838110156101165781810151838201526020016100fe565b505050509050019250505060405180910390f35b6101326102dc565b60408051600160a060020a039092168252519081900360200190f35b6101746004803603602081101561016457600080fd5b5035600160a060020a03166102eb565b604080519115158252519081900360200190f35b6101326004803603602081101561019e57600080fd5b5035610346565b6100d0600480360360208110156101bb57600080fd5b5035600160a060020a031661037e565b6101d361040f565b60408051918252519081900360200190f35b6100d0600480360360208110156101fb57600080fd5b5035600160a060020a0316610415565b600254600160a060020a0316331461026d576040805160e560020a62461bcd02815260206004820152600d60248201527f4e6f7420746865206f776e657200000000000000000000000000000000000000604482015290519081900360640190fd5b61027681610480565b50565b606060018054806020026020016040519081016040528092919081815260200182805480156102d157602002820191906000526020600020905b8154600160a060020a031681526001909101906020018083116102b3575b505050505090505b90565b600254600160a060020a031681565b6001546000906102fd57506000610341565b600160a060020a038216600081815260208190526040902054600180549192918390811061032757fe5b600091825260209091200154600160a060020a0316149150505b919050565b6000600154821061035657600080fd5b6001828154811061036357fe5b600091825260209091200154600160a060020a031692915050565b600254600160a060020a031633146103e0576040805160e560020a62461bcd02815260206004820152600d60248201527f4e6f7420746865206f776e657200000000000000000000000000000000000000604482015290519081900360640190fd5b6002805473ffffffffffffffffffffffffffffffffffffffff1916600160a060020a0392909216919091179055565b60015490565b600254600160a060020a03163314610477576040805160e560020a62461bcd02815260206004820152600d60248201527f4e6f7420746865206f776e657200000000000000000000000000000000000000604482015290519081900360640190fd5b61027681610592565b610489816102eb565b6104dd576040805160e560020a62461bcd02815260206004820152601260248201527f41646472657373206e6f742073746f7265640000000000000000000000000000604482015290519081900360640190fd5b600160a060020a03811660009081526020819052604081205460018054919291600019810190811061050b57fe5b60009182526020909120015460018054600160a060020a03909216925082918490811061053457fe5b6000918252602080832091909101805473ffffffffffffffffffffffffffffffffffffffff1916600160a060020a0394851617905591831681529081905260409020829055600180549061058c906000198301610659565b50505050565b61059b816102eb565b156105f0576040805160e560020a62461bcd02815260206004820152601660248201527f4164647265737320616c72656164792073746f72656400000000000000000000604482015290519081900360640190fd5b600180548082019091557fb10e2d527612073b26eecdfd717e6a320cf44b4afac2b0732d9fcbe2b7fa0cf681018054600160a060020a0390931673ffffffffffffffffffffffffffffffffffffffff199093168317905560009182526020829052604090912055565b81548183558181111561067d5760008381526020902061067d918101908301610682565b505050565b6102d991905b8082111561069c5760008155600101610688565b509056fea265627a7a7231582060282b68ef6032799657dac7e947cbd0ac6da9d14abe13ad1cc8458735c2b0b064736f6c634300050d0032608060405234801561001057600080fd5b506040516104a23803806104a28339818101604052602081101561003357600080fd5b505160008054600160a060020a03909216600160a060020a031990921691909117905561043d806100656000396000f3fe608060405234801561001057600080fd5b506004361061007e577c010000000000000000000000000000000000000000000000000000000060003504630cb6aaf18114610083578063741332e1146100b25780638da5cb5b146100e357806394d2bdfe14610114578063a6f9dae114610133578063dcf59f9314610166575b600080fd5b6100a06004803603602081101561009957600080fd5b503561016e565b60408051918252519081900360200190f35b6100cf600480360360208110156100c857600080fd5b503561018c565b604080519115158252519081900360200190f35b6100eb6101b0565b6040805173ffffffffffffffffffffffffffffffffffffffff9092168252519081900360200190f35b6101316004803603602081101561012a57600080fd5b50356101cc565b005b6101316004803603602081101561014957600080fd5b503573ffffffffffffffffffffffffffffffffffffffff16610340565b6100a0610402565b6002818154811061017b57fe5b600091825260209091200154905081565b6000818152600160205260408120546101a7575060006101ab565b5060015b919050565b60005473ffffffffffffffffffffffffffffffffffffffff1681565b60005473ffffffffffffffffffffffffffffffffffffffff16331461025257604080517f08c379a000000000000000000000000000000000000000000000000000000000815260206004820152600d60248201527f4e6f7420746865206f776e657200000000000000000000000000000000000000604482015290519081900360640190fd5b61025b8161018c565b156102c757604080517f08c379a000000000000000000000000000000000000000000000000000000000815260206004820152601360248201527f536b696c6c20616c726564792065786973747300000000000000000000000000604482015290519081900360640190fd5b6002805460018181019092557f405787fa12a823e0f2b7631cc41b3ba8828b3321ca811111fa75cd3aa3bb5ace0182905560008281526020918252604090819020839055805183815290517faa188befcea9a02d8dc91f778301ada798515c2a5e0913965d464b32ea0975ba929181900390910190a150565b60005473ffffffffffffffffffffffffffffffffffffffff1633146103c657604080517f08c379a000000000000000000000000000000000000000000000000000000000815260206004820152600d60248201527f4e6f7420746865206f776e657200000000000000000000000000000000000000604482015290519081900360640190fd5b6000805473ffffffffffffffffffffffffffffffffffffffff191673ffffffffffffffffffffffffffffffffffffffff92909216919091179055565b6002549056fea265627a7a72315820949b53280769002981731777817ac1a2e21aa4a4ee5076594dbaceb9c5fd6dea64736f6c634300050d0032",
  "source": "pragma solidity >=0.4.21 <0.6.0;\n\n\nimport \"./User.sol\";\nimport \"./Interfaces.sol\";\nimport \"./AssetStorage.sol\";\nimport \"./FunctionRegistry.sol\";\nimport \"./DatabaseSkills.sol\";\n\n/// @author Andrea Lisi, Samuel Fabrizi\n/// @title RatingSystemFramework\n/// @notice This contract is the top stack actor, it interfaces with the users providing methods to insert/remove users\ncontract RatingSystemFramework is Ownable {\n\n    // Data\n    FunctionRegistry            public  functionRegistry;  // Registry for the RatingFunction contracts\n    OwnableStoragePointer       private users;             // Structure to store users\n    DatabaseSkills              public  dbSkills;          // Structure to store the available skills \n    mapping(address => User)    private userAddresses;     // Ensure that a single account can instantiate only a single User contract\n\n    // Events\n    event UserCreated(User _userContract);\n\n\n    /// @dev The constructor simply calls the Ownable constructor to store the owner which is the creator of this contract\n    constructor () Ownable(msg.sender) public {\n\n        functionRegistry = new FunctionRegistry(msg.sender);    // The owner of RatingSystemFramework is the owner of the Registry\n        users = new OwnableStoragePointer(address(this));       // Because (this) interacts with the storage\n        dbSkills = new DatabaseSkills(msg.sender);              // Creates the instances of DatabaseSkill contract (Unique in an instance of RatingSystem)\n    }\n\n\n    /// @notice Creates a User with an username\n    /// @param _name the username of the user willing to subscribe\n    /// @dev If the sender has not already a User contract, stores inside users a new User contract, and then updates the map userAddresses to connect sender-User \n    function createUser(bytes32 _name) external {\n\n        require(address(userAddresses[msg.sender]) == address(0x0), \"This address has already a User registered\");\n\n        User user = new User(_name, msg.sender);     /// <= This line raises up the cost of the contract deployment by a lot (almost 6M gas)\n        userAddresses[msg.sender] = user;\n        users.insert(address(user));\n\n        emit UserCreated(user);\n    }\n\n\n    /// @notice Removes a User\n    /// @param _user The address of the User contract to remove\n    /// @dev This function removes from the storage the User contract and then removes from the map of addresses the attached User contract. The User contract is still alive, its destruction depends on its owner\n    function deleteUser(User _user) external  {\n\n        require(userAddresses[msg.sender] == _user, \"You cannot remove other's user's contracts\");\n\n        delete userAddresses[msg.sender];\n        users.remove(address(_user));\n    }\n\n\n    /// @notice Get the User contract attached to the sender\n    /// @return A User contract\n    function getMyUserContract() external view returns(User) {\n\n        return userAddresses[msg.sender];\n    }\n\n\n    /// @notice Get the list of the addresses of stored User contracts \n    /// @return The list of stored Users contracts\n    /// @dev Returning here a User[] would involve a loop cycle to cast address=>User\n    function getUsers() external view returns(address[] memory) {\n\n        return users.getAssets();\n    }\n\n\n    /// @notice Check if a User contract is present\n    /// @param _user Contract User to check the presence\n    /// @return true if _user is present\n    function isIn(User _user) external view returns(bool) {\n\n        return users.isIn(address(_user));\n    }\n\n\n    // May be deleted\n\n    /// @notice Get the number of stored User contracts in this System\n    /// @return The number of stored User contracts\n    function userCount() external view returns(uint) {\n\n        return users.getCount();\n    }\n\n    /// @notice checks if the input skill is alredy stored in DatabaseSkills contract\n    /// @param _skill The sought skill\n    function checkSkillExistence(bytes32 _skill) public view returns (bool) {\n        return dbSkills.checkSkillExistence(_skill);\n    }\n\n    \n\n\n    // /// @notice Get the address of the User contract at a given index\n    // /// @param _index The index to check\n    // /// @return The User contract address\n    // /// @dev Debug function    \n    // function getUserByIndex(uint _index) external view returns(User) {\n\n    //     return User(users.getKeyAt(_index));\n    // }\n\n\n}",
  "sourcePath": "/Users/fram3/code/nitrotest/Decentralized-Rating-Platform/contracts/RatingSystem.sol",
  "compiler": {
    "name": "solc",
    "version": "0.5.13+commit.5b0b510c.Emscripten.clang"
  },
  "schemaVersion": "3.4.16",
  "updatedAt": "2024-01-29T22:24:44.035Z",
  "networkType": "ethereum",
  "devdoc": {
    "author": "Andrea Lisi, Samuel Fabrizi",
    "methods": {
      "changeOwner(address)": {
        "params": {
          "_to": "The new owner of this contract "
        }
      },
      "checkSkillExistence(bytes32)": {
        "params": {
          "_skill": "The sought skill"
        }
      },
      "constructor": {
        "details": "The constructor simply calls the Ownable constructor to store the owner which is the creator of this contract"
      },
      "createUser(bytes32)": {
        "details": "If the sender has not already a User contract, stores inside users a new User contract, and then updates the map userAddresses to connect sender-User ",
        "params": {
          "_name": "the username of the user willing to subscribe"
        }
      },
      "deleteUser(address)": {
        "details": "This function removes from the storage the User contract and then removes from the map of addresses the attached User contract. The User contract is still alive, its destruction depends on its owner",
        "params": {
          "_user": "The address of the User contract to remove"
        }
      },
      "getMyUserContract()": {
        "return": "A User contract"
      },
      "getUsers()": {
        "details": "Returning here a User[] would involve a loop cycle to cast address=>User",
        "return": "The list of stored Users contracts"
      },
      "isIn(address)": {
        "params": {
          "_user": "Contract User to check the presence"
        },
        "return": "true if _user is present"
      },
      "userCount()": {
        "return": "The number of stored User contracts"
      }
    },
    "title": "RatingSystemFramework"
  },
  "userdoc": {
    "methods": {
      "changeOwner(address)": {
        "notice": "This function provides the possibility to change the owner"
      },
      "checkSkillExistence(bytes32)": {
        "notice": "checks if the input skill is alredy stored in DatabaseSkills contract"
      },
      "createUser(bytes32)": {
        "notice": "Creates a User with an username"
      },
      "deleteUser(address)": {
        "notice": "Removes a User"
      },
      "getMyUserContract()": {
        "notice": "Get the User contract attached to the sender"
      },
      "getUsers()": {
        "notice": "Get the list of the addresses of stored User contracts "
      },
      "isIn(address)": {
        "notice": "Check if a User contract is present"
      },
      "userCount()": {
        "notice": "Get the number of stored User contracts in this System"
      }
    },
    "notice": "This contract is the top stack actor, it interfaces with the users providing methods to insert/remove users"
  }
}