{
  "contractName": "UserSkills",
  "abi": [
    {
      "anonymous": false,
      "inputs": [
        {
          "indexed": false,
          "internalType": "bytes32",
          "name": "_skill",
          "type": "bytes32"
        },
        {
          "indexed": false,
          "internalType": "uint256",
          "name": "_newValue",
          "type": "uint256"
        }
      ],
      "name": "UpdatedSkill",
      "type": "event"
    },
    {
      "constant": true,
      "inputs": [
        {
          "internalType": "uint256",
          "name": "",
          "type": "uint256"
        }
      ],
      "name": "keys",
      "outputs": [
        {
          "internalType": "bytes32",
          "name": "",
          "type": "bytes32"
        }
      ],
      "payable": false,
      "stateMutability": "view",
      "type": "function"
    },
    {
      "constant": true,
      "inputs": [
        {
          "internalType": "bytes32",
          "name": "",
          "type": "bytes32"
        }
      ],
      "name": "skills",
      "outputs": [
        {
          "internalType": "uint256",
          "name": "",
          "type": "uint256"
        }
      ],
      "payable": false,
      "stateMutability": "view",
      "type": "function"
    },
    {
      "constant": false,
      "inputs": [
        {
          "internalType": "bytes32",
          "name": "_skill",
          "type": "bytes32"
        },
        {
          "internalType": "uint256",
          "name": "_value",
          "type": "uint256"
        }
      ],
      "name": "updateSkill",
      "outputs": [
        {
          "internalType": "bool",
          "name": "",
          "type": "bool"
        }
      ],
      "payable": false,
      "stateMutability": "nonpayable",
      "type": "function"
    },
    {
      "constant": true,
      "inputs": [],
      "name": "getSkillsNumber",
      "outputs": [
        {
          "internalType": "uint256",
          "name": "",
          "type": "uint256"
        }
      ],
      "payable": false,
      "stateMutability": "view",
      "type": "function"
    },
    {
      "constant": true,
      "inputs": [
        {
          "internalType": "uint256",
          "name": "index",
          "type": "uint256"
        }
      ],
      "name": "getSkillNameAtIndex",
      "outputs": [
        {
          "internalType": "bytes32",
          "name": "",
          "type": "bytes32"
        }
      ],
      "payable": false,
      "stateMutability": "view",
      "type": "function"
    },
    {
      "constant": true,
      "inputs": [
        {
          "internalType": "uint256",
          "name": "index",
          "type": "uint256"
        }
      ],
      "name": "getSkillValueAtIndex",
      "outputs": [
        {
          "internalType": "uint256",
          "name": "",
          "type": "uint256"
        }
      ],
      "payable": false,
      "stateMutability": "view",
      "type": "function"
    },
    {
      "constant": true,
      "inputs": [
        {
          "internalType": "bytes32",
          "name": "_skill",
          "type": "bytes32"
        }
      ],
      "name": "getSkillValue",
      "outputs": [
        {
          "internalType": "uint256",
          "name": "",
          "type": "uint256"
        }
      ],
      "payable": false,
      "stateMutability": "view",
      "type": "function"
    }
  ],
  "bytecode": "0x608060405234801561001057600080fd5b506103a5806100206000396000f3fe608060405234801561001057600080fd5b506004361061009a576000357c010000000000000000000000000000000000000000000000000000000090048063c087f6a011610078578063c087f6a014610108578063dcf59f931461013f578063e3c76c9b14610147578063ee3dadbd146101645761009a565b80630cb6aaf11461009f5780632b036a5f146100ce5780639b055f90146100eb575b600080fd5b6100bc600480360360208110156100b557600080fd5b5035610181565b60408051918252519081900360200190f35b6100bc600480360360208110156100e457600080fd5b503561019f565b6100bc6004803603602081101561010157600080fd5b50356101b1565b61012b6004803603604081101561011e57600080fd5b50803590602001356101e4565b604080519115158252519081900360200190f35b6100bc6102bc565b6100bc6004803603602081101561015d57600080fd5b50356102c2565b6100bc6004803603602081101561017a57600080fd5b50356102e3565b6001818154811061018e57fe5b600091825260209091200154905081565b60009081526020819052604090205490565b6000806000600184815481106101c357fe5b90600052602060002001548152602001908152602001600020549050919050565b60008281526020819052604081205415158061023f57600180548082019091557fb10e2d527612073b26eecdfd717e6a320cf44b4afac2b0732d9fcbe2b7fa0cf601849055600084815260208190526040902083905561026e565b60008481526020819052604090205461025e908463ffffffff6102f516565b6000858152602081905260409020555b600084815260208181526040918290205482518781529182015281517fc66573feb4118f091c9f7c5c338d6c8bcbb774da43edabb8cb1d414c1d90d358929181900390910190a19392505050565b60015490565b6000600182815481106102d157fe5b90600052602060002001549050919050565b60006020819052908152604090205481565b60008282018381101561036957604080517f08c379a000000000000000000000000000000000000000000000000000000000815260206004820152601b60248201527f536166654d6174683a206164646974696f6e206f766572666c6f770000000000604482015290519081900360640190fd5b939250505056fea265627a7a723158202132b8a1882bcb0d6645f3fd9c9ba37c7a7ec9d2f3915bdf2284b02758b4586764736f6c634300050d0032",
  "source": "pragma solidity >=0.4.21 <0.6.0;\n\nimport \"@openzeppelin/contracts/math/SafeMath.sol\";\n\n/// @author Samuel Fabrizi\n/// @title UserSkills\n/// @notice This contract stores the skill values of a user\ncontract UserSkills {\n\tusing SafeMath for uint;\n\n\tmapping(bytes32=>uint256)  \tpublic \tskills;\t\t// Structured that stores the pairs (Key, value) where Key is the skill e value is its value\n\tbytes32[] \t\t\t\t\tpublic\tkeys;\t\t// array used to implement mapping iterator pattern (future work)\n\n\tevent UpdatedSkill(bytes32 _skill, uint _newValue);\n\n\n\t/// @notice updates the value of a skill (if exists), It returns true if the skill exists, false otherwise\n    /// @param _skill Skill to update\n    /// @param _value Value increment\n\tfunction updateSkill(bytes32 _skill, uint _value) external returns (bool){\n\t\tbool exists = skills[_skill] != 0;\n\t\tif (!exists) {\n\t\t\tkeys.push(_skill);\n\t\t\tskills[_skill] = _value;\n\t\t}\n\t\telse {\n\t\t\tskills[_skill] = skills[_skill].add(_value);\n\t\t}\n\t\temit UpdatedSkill(_skill, skills[_skill]);\n\t\treturn exists;\n\t}\n\n\n\t/// @notice returns the number of pairs stored\n\tfunction getSkillsNumber() external view returns(uint){\n\t\treturn keys.length;\n\t}\n\n\t/// @notice returns the skill name stored in a specific index\n    /// @param index Index of the sought skill\n\tfunction getSkillNameAtIndex(uint index) external view returns (bytes32){\n\t\treturn keys[index];\n\t}\n\n\t/// @notice returns the value of the skill stored in a specific index\n    /// @param index Index of the sought skill value\n\tfunction getSkillValueAtIndex(uint index) external view returns (uint){\n\t\treturn skills[keys[index]];\n\t}\n\n\t/// @notice returns the value of a skill\n    /// @param _skill Skill name\n\tfunction getSkillValue(bytes32 _skill) external view returns (uint){\n\t\treturn skills[_skill];\n\t}\n\n}",
  "sourcePath": "/Users/fram3/code/nitrotest/Decentralized-Rating-Platform/contracts/UserSkills.sol",
  "compiler": {
    "name": "solc",
    "version": "0.5.13+commit.5b0b510c.Emscripten.clang"
  },
  "schemaVersion": "3.4.16",
  "updatedAt": "2024-01-29T18:52:32.514Z",
  "devdoc": {
    "author": "Samuel Fabrizi",
    "methods": {
      "getSkillNameAtIndex(uint256)": {
        "params": {
          "index": "Index of the sought skill"
        }
      },
      "getSkillValue(bytes32)": {
        "params": {
          "_skill": "Skill name"
        }
      },
      "getSkillValueAtIndex(uint256)": {
        "params": {
          "index": "Index of the sought skill value"
        }
      },
      "updateSkill(bytes32,uint256)": {
        "params": {
          "_skill": "Skill to update",
          "_value": "Value increment"
        }
      }
    },
    "title": "UserSkills"
  },
  "userdoc": {
    "methods": {
      "getSkillNameAtIndex(uint256)": {
        "notice": "returns the skill name stored in a specific index"
      },
      "getSkillValue(bytes32)": {
        "notice": "returns the value of a skill"
      },
      "getSkillValueAtIndex(uint256)": {
        "notice": "returns the value of the skill stored in a specific index"
      },
      "getSkillsNumber()": {
        "notice": "returns the number of pairs stored"
      },
      "updateSkill(bytes32,uint256)": {
        "notice": "updates the value of a skill (if exists), It returns true if the skill exists, false otherwise"
      }
    },
    "notice": "This contract stores the skill values of a user"
  }
}